{
  "contractName": "Forwarder",
  "abi": [
    {
      "inputs": [],
      "stateMutability": "nonpayable",
      "type": "constructor"
    },
    {
      "anonymous": false,
      "inputs": [
        {
          "indexed": true,
          "internalType": "bytes32",
          "name": "domainSeparator",
          "type": "bytes32"
        },
        {
          "indexed": false,
          "internalType": "bytes",
          "name": "domainValue",
          "type": "bytes"
        }
      ],
      "name": "DomainRegistered",
      "type": "event"
    },
    {
      "anonymous": false,
      "inputs": [
        {
          "indexed": true,
          "internalType": "bytes32",
          "name": "typeHash",
          "type": "bytes32"
        },
        {
          "indexed": false,
          "internalType": "string",
          "name": "typeStr",
          "type": "string"
        }
      ],
      "name": "RequestTypeRegistered",
      "type": "event"
    },
    {
      "inputs": [],
      "name": "EIP712_DOMAIN_TYPE",
      "outputs": [
        {
          "internalType": "string",
          "name": "",
          "type": "string"
        }
      ],
      "stateMutability": "view",
      "type": "function"
    },
    {
      "inputs": [],
      "name": "GENERIC_PARAMS",
      "outputs": [
        {
          "internalType": "string",
          "name": "",
          "type": "string"
        }
      ],
      "stateMutability": "view",
      "type": "function"
    },
    {
      "inputs": [
        {
          "internalType": "bytes32",
          "name": "",
          "type": "bytes32"
        }
      ],
      "name": "domains",
      "outputs": [
        {
          "internalType": "bool",
          "name": "",
          "type": "bool"
        }
      ],
      "stateMutability": "view",
      "type": "function"
    },
    {
      "inputs": [
        {
          "internalType": "bytes32",
          "name": "",
          "type": "bytes32"
        }
      ],
      "name": "typeHashes",
      "outputs": [
        {
          "internalType": "bool",
          "name": "",
          "type": "bool"
        }
      ],
      "stateMutability": "view",
      "type": "function"
    },
    {
      "stateMutability": "payable",
      "type": "receive"
    },
    {
      "inputs": [
        {
          "internalType": "address",
          "name": "from",
          "type": "address"
        }
      ],
      "name": "getNonce",
      "outputs": [
        {
          "internalType": "uint256",
          "name": "",
          "type": "uint256"
        }
      ],
      "stateMutability": "view",
      "type": "function"
    },
    {
      "inputs": [
        {
          "components": [
            {
              "internalType": "address",
              "name": "from",
              "type": "address"
            },
            {
              "internalType": "address",
              "name": "to",
              "type": "address"
            },
            {
              "internalType": "uint256",
              "name": "value",
              "type": "uint256"
            },
            {
              "internalType": "uint256",
              "name": "gas",
              "type": "uint256"
            },
            {
              "internalType": "uint256",
              "name": "nonce",
              "type": "uint256"
            },
            {
              "internalType": "bytes",
              "name": "data",
              "type": "bytes"
            }
          ],
          "internalType": "struct IForwarder.ForwardRequest",
          "name": "req",
          "type": "tuple"
        },
        {
          "internalType": "bytes32",
          "name": "domainSeparator",
          "type": "bytes32"
        },
        {
          "internalType": "bytes32",
          "name": "requestTypeHash",
          "type": "bytes32"
        },
        {
          "internalType": "bytes",
          "name": "suffixData",
          "type": "bytes"
        },
        {
          "internalType": "bytes",
          "name": "sig",
          "type": "bytes"
        }
      ],
      "name": "verify",
      "outputs": [],
      "stateMutability": "view",
      "type": "function"
    },
    {
      "inputs": [
        {
          "components": [
            {
              "internalType": "address",
              "name": "from",
              "type": "address"
            },
            {
              "internalType": "address",
              "name": "to",
              "type": "address"
            },
            {
              "internalType": "uint256",
              "name": "value",
              "type": "uint256"
            },
            {
              "internalType": "uint256",
              "name": "gas",
              "type": "uint256"
            },
            {
              "internalType": "uint256",
              "name": "nonce",
              "type": "uint256"
            },
            {
              "internalType": "bytes",
              "name": "data",
              "type": "bytes"
            }
          ],
          "internalType": "struct IForwarder.ForwardRequest",
          "name": "req",
          "type": "tuple"
        },
        {
          "internalType": "bytes32",
          "name": "domainSeparator",
          "type": "bytes32"
        },
        {
          "internalType": "bytes32",
          "name": "requestTypeHash",
          "type": "bytes32"
        },
        {
          "internalType": "bytes",
          "name": "suffixData",
          "type": "bytes"
        },
        {
          "internalType": "bytes",
          "name": "sig",
          "type": "bytes"
        }
      ],
      "name": "execute",
      "outputs": [
        {
          "internalType": "bool",
          "name": "success",
          "type": "bool"
        },
        {
          "internalType": "bytes",
          "name": "ret",
          "type": "bytes"
        }
      ],
      "stateMutability": "payable",
      "type": "function"
    },
    {
      "inputs": [
        {
          "internalType": "string",
          "name": "typeName",
          "type": "string"
        },
        {
          "internalType": "string",
          "name": "typeSuffix",
          "type": "string"
        }
      ],
      "name": "registerRequestType",
      "outputs": [],
      "stateMutability": "nonpayable",
      "type": "function"
    },
    {
      "inputs": [
        {
          "internalType": "string",
          "name": "name",
          "type": "string"
        },
        {
          "internalType": "string",
          "name": "version",
          "type": "string"
        }
      ],
      "name": "registerDomainSeparator",
      "outputs": [],
      "stateMutability": "nonpayable",
      "type": "function"
    },
    {
      "inputs": [
        {
          "components": [
            {
              "internalType": "address",
              "name": "from",
              "type": "address"
            },
            {
              "internalType": "address",
              "name": "to",
              "type": "address"
            },
            {
              "internalType": "uint256",
              "name": "value",
              "type": "uint256"
            },
            {
              "internalType": "uint256",
              "name": "gas",
              "type": "uint256"
            },
            {
              "internalType": "uint256",
              "name": "nonce",
              "type": "uint256"
            },
            {
              "internalType": "bytes",
              "name": "data",
              "type": "bytes"
            }
          ],
          "internalType": "struct IForwarder.ForwardRequest",
          "name": "req",
          "type": "tuple"
        },
        {
          "internalType": "bytes32",
          "name": "requestTypeHash",
          "type": "bytes32"
        },
        {
          "internalType": "bytes",
          "name": "suffixData",
          "type": "bytes"
        }
      ],
      "name": "_getEncoded",
      "outputs": [
        {
          "internalType": "bytes",
          "name": "",
          "type": "bytes"
        }
      ],
      "stateMutability": "pure",
      "type": "function"
    }
  ],
  "bytecode": "0x60806040523480156200001157600080fd5b5060606040518060800160405280604a815260200162001f6b604a9139604051602001620000409190620001da565b604051602081830303815290604052905062000062816200006960201b60201c565b506200029f565b600081805190602001209050600160008083815260200190815260200160002060006101000a81548160ff021916908315150217905550807f64d6bce64323458c44643c51fe45113efc882082f7b7fd5f09f0d69d2eedb20283604051620000d291906200020d565b60405180910390a25050565b6000620000eb8262000231565b620000f781856200023c565b93506200010981856020860162000258565b62000114816200028e565b840191505092915050565b60006200012c8262000231565b6200013881856200024d565b93506200014a81856020860162000258565b80840191505092915050565b600062000165600f836200024d565b91507f466f7277617264526571756573742800000000000000000000000000000000006000830152600f82019050919050565b6000620001a76001836200024d565b91507f29000000000000000000000000000000000000000000000000000000000000006000830152600182019050919050565b6000620001e78262000156565b9150620001f582846200011f565b9150620002028262000198565b915081905092915050565b60006020820190508181036000830152620002298184620000de565b905092915050565b600081519050919050565b600082825260208201905092915050565b600081905092915050565b60005b83811015620002785780820151818401526020810190506200025b565b8381111562000288576000848401525b50505050565b6000601f19601f8301169050919050565b611cbc80620002af6000396000f3fe6080604052600436106100955760003560e01c8063c3f28abd11610059578063c3f28abd14610198578063c45c2674146101c3578063c722f17714610200578063cdf5735a1461023d578063d9210be51461026e5761009c565b8063066a310c146100a157806321fe98df146100cc5780632d0335ab14610109578063992d82c3146101465780639c7b45921461016f5761009c565b3661009c57005b600080fd5b3480156100ad57600080fd5b506100b6610297565b6040516100c391906118a2565b60405180910390f35b3480156100d857600080fd5b506100f360048036038101906100ee9190610f56565b6102b3565b604051610100919061179d565b60405180910390f35b34801561011557600080fd5b50610130600480360381019061012b9190610f2d565b6102d3565b60405161013d91906119e4565b60405180910390f35b34801561015257600080fd5b5061016d60048036038101906101689190610ff4565b61031c565b005b34801561017b57600080fd5b5061019660048036038101906101919190610f7f565b6103c3565b005b3480156101a457600080fd5b506101ad6104b9565b6040516101ba91906118a2565b60405180910390f35b3480156101cf57600080fd5b506101ea60048036038101906101e591906110bc565b6104d5565b6040516101f79190611880565b60405180910390f35b34801561020c57600080fd5b5061022760048036038101906102229190610f56565b61054c565b604051610234919061179d565b60405180910390f35b61025760048036038101906102529190610ff4565b61056c565b6040516102659291906117b8565b60405180910390f35b34801561027a57600080fd5b5061029560048036038101906102909190610f7f565b610726565b005b6040518060800160405280604a8152602001611beb604a913981565b60006020528060005260406000206000915054906101000a900460ff1681565b6000600260008373ffffffffffffffffffffffffffffffffffffffff1673ffffffffffffffffffffffffffffffffffffffff168152602001908152602001600020549050919050565b61032587610887565b6103ba87878787878080601f016020809104026020016040519081016040528093929190818152602001838380828437600081840152601f19601f8201169050808301925050505050505086868080601f016020809104026020016040519081016040528093929190818152602001838380828437600081840152601f19601f82011690508083019250505050505050610913565b50505050505050565b60004690506060604051806080016040528060528152602001611c35605291398051906020012086866040516103fa929190611662565b60405180910390208585604051610412929190611662565b604051809103902084306040516020016104309594939291906117e8565b6040516020818303038152906040529050600081805190602001209050600180600083815260200190815260200160002060006101000a81548160ff021916908315150217905550807f4bc68689cbe89a4a6333a3ab0a70093874da3e5bfb71e93102027f3f073687d8836040516104a89190611880565b60405180910390a250505050505050565b604051806080016040528060528152602001611c356052913981565b606082846000015185602001518660400151876060015188608001518960a00151805190602001206040516020016105129695949392919061173c565b604051602081830303815290604052836040516020016105349392919061162d565b60405160208183030381529060405290509392505050565b60016020528060005260406000206000915054906101000a900460ff1681565b6000606061057989610887565b61060e89898989898080601f016020809104026020016040519081016040528093929190818152602001838380828437600081840152601f19601f8201169050808301925050505050505088888080601f016020809104026020016040519081016040528093929190818152602001838380828437600081840152601f19601f82011690508083019250505050505050610913565b61061789610a9c565b886020015173ffffffffffffffffffffffffffffffffffffffff1689606001518a604001518b60a001518c60000151604051602001610657929190611692565b604051602081830303815290604052604051610673919061167b565b600060405180830381858888f193505050503d80600081146106b1576040519150601f19603f3d011682016040523d82523d6000602084013e6106b6565b606091505b508092508193505050600047111561071457886000015173ffffffffffffffffffffffffffffffffffffffff166108fc479081150290604051600060405180830381858888f19350505050158015610712573d6000803e3d6000fd5b505b81819150915097509795505050505050565b60008090505b8484905081101561083257600085858381811061074557fe5b9050013560f81c60f81b90507f2800000000000000000000000000000000000000000000000000000000000000817effffffffffffffffffffffffffffffffffffffffffffffffffffffffffffff1916141580156107e557507f2900000000000000000000000000000000000000000000000000000000000000817effffffffffffffffffffffffffffffffffffffffffffffffffffffffffffff191614155b610824576040517f08c379a000000000000000000000000000000000000000000000000000000000815260040161081b90611904565b60405180910390fd5b50808060010191505061072c565b50606084846040518060800160405280604a8152602001611beb604a913985856040516020016108669594939291906116ba565b604051602081830303815290604052905061088081610af2565b5050505050565b806080015160026000836000015173ffffffffffffffffffffffffffffffffffffffff1673ffffffffffffffffffffffffffffffffffffffff1681526020019081526020016000205414610910576040517f08c379a000000000000000000000000000000000000000000000000000000000815260040161090790611924565b60405180910390fd5b50565b6001600085815260200190815260200160002060009054906101000a900460ff16610973576040517f08c379a000000000000000000000000000000000000000000000000000000000815260040161096a90611984565b60405180910390fd5b60008084815260200190815260200160002060009054906101000a900460ff166109d2576040517f08c379a00000000000000000000000000000000000000000000000000000000081526004016109c990611964565b60405180910390fd5b6000846109e08786866104d5565b805190602001206040516020016109f8929190611705565b604051602081830303815290604052805190602001209050856000015173ffffffffffffffffffffffffffffffffffffffff16610a3e8383610b6590919063ffffffff16565b73ffffffffffffffffffffffffffffffffffffffff1614610a94576040517f08c379a0000000000000000000000000000000000000000000000000000000008152600401610a8b906119c4565b60405180910390fd5b505050505050565b60026000826000015173ffffffffffffffffffffffffffffffffffffffff1673ffffffffffffffffffffffffffffffffffffffff1681526020019081526020016000206000815480929190600101919050555050565b600081805190602001209050600160008083815260200190815260200160002060006101000a81548160ff021916908315150217905550807f64d6bce64323458c44643c51fe45113efc882082f7b7fd5f09f0d69d2eedb20283604051610b5991906118a2565b60405180910390a25050565b60006041825114610bab576040517f08c379a0000000000000000000000000000000000000000000000000000000008152600401610ba2906118e4565b60405180910390fd5b60008060006020850151925060408501519150606085015160001a90507f7fffffffffffffffffffffffffffffff5d576e7357a4501ddfe92f46681b20a08260001c1115610c2e576040517f08c379a0000000000000000000000000000000000000000000000000000000008152600401610c2590611944565b60405180910390fd5b601b8160ff161480610c435750601c8160ff16145b610c82576040517f08c379a0000000000000000000000000000000000000000000000000000000008152600401610c79906119a4565b60405180910390fd5b600060018783868660405160008152602001604052604051610ca7949392919061183b565b6020604051602081039080840390855afa158015610cc9573d6000803e3d6000fd5b505050602060405103519050600073ffffffffffffffffffffffffffffffffffffffff168173ffffffffffffffffffffffffffffffffffffffff161415610d45576040517f08c379a0000000000000000000000000000000000000000000000000000000008152600401610d3c906118c4565b60405180910390fd5b8094505050505092915050565b600081359050610d6181611ba5565b92915050565b600081359050610d7681611bbc565b92915050565b60008083601f840112610d8e57600080fd5b8235905067ffffffffffffffff811115610da757600080fd5b602083019150836001820283011115610dbf57600080fd5b9250929050565b600082601f830112610dd757600080fd5b8135610dea610de582611a2c565b6119ff565b91508082526020830160208301858383011115610e0657600080fd5b610e11838284611b17565b50505092915050565b60008083601f840112610e2c57600080fd5b8235905067ffffffffffffffff811115610e4557600080fd5b602083019150836001820283011115610e5d57600080fd5b9250929050565b600060c08284031215610e7657600080fd5b610e8060c06119ff565b90506000610e9084828501610d52565b6000830152506020610ea484828501610d52565b6020830152506040610eb884828501610f18565b6040830152506060610ecc84828501610f18565b6060830152506080610ee084828501610f18565b60808301525060a082013567ffffffffffffffff811115610f0057600080fd5b610f0c84828501610dc6565b60a08301525092915050565b600081359050610f2781611bd3565b92915050565b600060208284031215610f3f57600080fd5b6000610f4d84828501610d52565b91505092915050565b600060208284031215610f6857600080fd5b6000610f7684828501610d67565b91505092915050565b60008060008060408587031215610f9557600080fd5b600085013567ffffffffffffffff811115610faf57600080fd5b610fbb87828801610e1a565b9450945050602085013567ffffffffffffffff811115610fda57600080fd5b610fe687828801610e1a565b925092505092959194509250565b600080600080600080600060a0888a03121561100f57600080fd5b600088013567ffffffffffffffff81111561102957600080fd5b6110358a828b01610e64565b97505060206110468a828b01610d67565b96505060406110578a828b01610d67565b955050606088013567ffffffffffffffff81111561107457600080fd5b6110808a828b01610d7c565b9450945050608088013567ffffffffffffffff81111561109f57600080fd5b6110ab8a828b01610d7c565b925092505092959891949750929550565b6000806000606084860312156110d157600080fd5b600084013567ffffffffffffffff8111156110eb57600080fd5b6110f786828701610e64565b935050602061110886828701610d67565b925050604084013567ffffffffffffffff81111561112557600080fd5b61113186828701610dc6565b9150509250925092565b61114481611ab8565b82525050565b61115381611aa6565b82525050565b61116a61116582611aa6565b611b59565b82525050565b61117981611aca565b82525050565b61118881611ad6565b82525050565b61119f61119a82611ad6565b611b6b565b82525050565b60006111b18385611a7f565b93506111be838584611b17565b82840190509392505050565b60006111d582611a58565b6111df8185611a6e565b93506111ef818560208601611b26565b6111f881611b87565b840191505092915050565b600061120e82611a58565b6112188185611a7f565b9350611228818560208601611b26565b80840191505092915050565b60006112408385611a9b565b935061124d838584611b17565b82840190509392505050565b600061126482611a63565b61126e8185611a8a565b935061127e818560208601611b26565b61128781611b87565b840191505092915050565b600061129d82611a63565b6112a78185611a9b565b93506112b7818560208601611b26565b80840191505092915050565b60006112d0601883611a8a565b91507f45434453413a20696e76616c6964207369676e617475726500000000000000006000830152602082019050919050565b6000611310601f83611a8a565b91507f45434453413a20696e76616c6964207369676e6174757265206c656e677468006000830152602082019050919050565b6000611350601083611a8a565b91507f696e76616c696420747970656e616d65000000000000000000000000000000006000830152602082019050919050565b6000611390600e83611a8a565b91507f6e6f6e6365206d69736d617463680000000000000000000000000000000000006000830152602082019050919050565b60006113d0600283611a9b565b91507f19010000000000000000000000000000000000000000000000000000000000006000830152600282019050919050565b6000611410600183611a9b565b91507f2c000000000000000000000000000000000000000000000000000000000000006000830152600182019050919050565b6000611450600183611a9b565b91507f28000000000000000000000000000000000000000000000000000000000000006000830152600182019050919050565b6000611490602283611a8a565b91507f45434453413a20696e76616c6964207369676e6174757265202773272076616c60008301527f75650000000000000000000000000000000000000000000000000000000000006020830152604082019050919050565b60006114f6601d83611a8a565b91507f756e7265676973746572656420726571756573742074797065686173680000006000830152602082019050919050565b6000611536601d83611a8a565b91507f756e7265676973746572656420646f6d61696e20736570617261746f720000006000830152602082019050919050565b6000611576602283611a8a565b91507f45434453413a20696e76616c6964207369676e6174757265202776272076616c60008301527f75650000000000000000000000000000000000000000000000000000000000006020830152604082019050919050565b60006115dc601283611a8a565b91507f7369676e6174757265206d69736d6174636800000000000000000000000000006000830152602082019050919050565b61161881611b00565b82525050565b61162781611b0a565b82525050565b6000611639828661118e565b6020820191506116498285611203565b91506116558284611203565b9150819050949350505050565b600061166f8284866111a5565b91508190509392505050565b60006116878284611203565b915081905092915050565b600061169e8285611203565b91506116aa8284611159565b6014820191508190509392505050565b60006116c7828789611234565b91506116d282611443565b91506116de8286611292565b91506116e982611403565b91506116f6828486611234565b91508190509695505050505050565b6000611710826113c3565b915061171c828561118e565b60208201915061172c828461118e565b6020820191508190509392505050565b600060c082019050611751600083018961114a565b61175e602083018861114a565b61176b604083018761160f565b611778606083018661160f565b611785608083018561160f565b61179260a083018461117f565b979650505050505050565b60006020820190506117b26000830184611170565b92915050565b60006040820190506117cd6000830185611170565b81810360208301526117df81846111ca565b90509392505050565b600060a0820190506117fd600083018861117f565b61180a602083018761117f565b611817604083018661117f565b611824606083018561160f565b611831608083018461113b565b9695505050505050565b6000608082019050611850600083018761117f565b61185d602083018661161e565b61186a604083018561117f565b611877606083018461117f565b95945050505050565b6000602082019050818103600083015261189a81846111ca565b905092915050565b600060208201905081810360008301526118bc8184611259565b905092915050565b600060208201905081810360008301526118dd816112c3565b9050919050565b600060208201905081810360008301526118fd81611303565b9050919050565b6000602082019050818103600083015261191d81611343565b9050919050565b6000602082019050818103600083015261193d81611383565b9050919050565b6000602082019050818103600083015261195d81611483565b9050919050565b6000602082019050818103600083015261197d816114e9565b9050919050565b6000602082019050818103600083015261199d81611529565b9050919050565b600060208201905081810360008301526119bd81611569565b9050919050565b600060208201905081810360008301526119dd816115cf565b9050919050565b60006020820190506119f9600083018461160f565b92915050565b6000604051905081810181811067ffffffffffffffff82111715611a2257600080fd5b8060405250919050565b600067ffffffffffffffff821115611a4357600080fd5b601f19601f8301169050602081019050919050565b600081519050919050565b600081519050919050565b600082825260208201905092915050565b600081905092915050565b600082825260208201905092915050565b600081905092915050565b6000611ab182611ae0565b9050919050565b6000611ac382611ae0565b9050919050565b60008115159050919050565b6000819050919050565b600073ffffffffffffffffffffffffffffffffffffffff82169050919050565b6000819050919050565b600060ff82169050919050565b82818337600083830152505050565b60005b83811015611b44578082015181840152602081019050611b29565b83811115611b53576000848401525b50505050565b6000611b6482611b75565b9050919050565b6000819050919050565b6000611b8082611b98565b9050919050565b6000601f19601f8301169050919050565b60008160601b9050919050565b611bae81611aa6565b8114611bb957600080fd5b50565b611bc581611ad6565b8114611bd057600080fd5b50565b611bdc81611b00565b8114611be757600080fd5b5056fe616464726573732066726f6d2c6164647265737320746f2c75696e743235362076616c75652c75696e74323536206761732c75696e74323536206e6f6e63652c62797465732064617461454950373132446f6d61696e28737472696e67206e616d652c737472696e672076657273696f6e2c75696e7432353620636861696e49642c6164647265737320766572696679696e67436f6e747261637429a26469706673582212207ceb99726f12f28f4c13bc855aea8909056e698d6abb7a111caab199151f8d3064736f6c634300060a0033616464726573732066726f6d2c6164647265737320746f2c75696e743235362076616c75652c75696e74323536206761732c75696e74323536206e6f6e63652c62797465732064617461",
  "immutableReferences": {},
  "source": "// SPDX-License-Identifier:MIT\npragma solidity ^0.6.2;\npragma experimental ABIEncoderV2;\n\nimport \"@openzeppelin/contracts/cryptography/ECDSA.sol\";\nimport \"./IForwarder.sol\";\n\ncontract Forwarder is IForwarder {\n    using ECDSA for bytes32;\n\n    string public constant GENERIC_PARAMS = \"address from,address to,uint256 value,uint256 gas,uint256 nonce,bytes data\";\n\n    string public constant EIP712_DOMAIN_TYPE = \"EIP712Domain(string name,string version,uint256 chainId,address verifyingContract)\";\n\n    mapping(bytes32 => bool) public typeHashes;\n    mapping(bytes32 => bool) public domains;\n\n    // Nonces of senders, used to prevent replay attacks\n    mapping(address => uint256) private nonces;\n\n    // solhint-disable-next-line no-empty-blocks\n    receive() external payable {}\n\n    function getNonce(address from)\n    public view override\n    returns (uint256) {\n        return nonces[from];\n    }\n\n    constructor() public {\n\n        string memory requestType = string(abi.encodePacked(\"ForwardRequest(\", GENERIC_PARAMS, \")\"));\n        registerRequestTypeInternal(requestType);\n    }\n\n    function verify(\n        ForwardRequest memory req,\n        bytes32 domainSeparator,\n        bytes32 requestTypeHash,\n        bytes calldata suffixData,\n        bytes calldata sig)\n    external override view {\n\n        _verifyNonce(req);\n        _verifySig(req, domainSeparator, requestTypeHash, suffixData, sig);\n    }\n\n    function execute(\n        ForwardRequest memory req,\n        bytes32 domainSeparator,\n        bytes32 requestTypeHash,\n        bytes calldata suffixData,\n        bytes calldata sig\n    )\n    external payable\n    override\n    returns (bool success, bytes memory ret) {\n        _verifyNonce(req);\n        _verifySig(req, domainSeparator, requestTypeHash, suffixData, sig);\n        _updateNonce(req);\n\n        // solhint-disable-next-line avoid-low-level-calls\n        (success,ret) = req.to.call{gas : req.gas, value : req.value}(abi.encodePacked(req.data, req.from));\n        if ( address(this).balance>0 ) {\n            //can't fail: req.from signed (off-chain) the request, so it must be an EOA...\n            payable(req.from).transfer(address(this).balance);\n        }\n        return (success,ret);\n    }\n\n\n    function _verifyNonce(ForwardRequest memory req) internal view {\n        require(nonces[req.from] == req.nonce, \"nonce mismatch\");\n    }\n\n    function _updateNonce(ForwardRequest memory req) internal {\n        nonces[req.from]++;\n    }\n\n    function registerRequestType(string calldata typeName, string calldata typeSuffix) external override {\n\n        for (uint i = 0; i < bytes(typeName).length; i++) {\n            bytes1 c = bytes(typeName)[i];\n            require(c != \"(\" && c != \")\", \"invalid typename\");\n        }\n\n        string memory requestType = string(abi.encodePacked(typeName, \"(\", GENERIC_PARAMS, \",\", typeSuffix));\n        registerRequestTypeInternal(requestType);\n    }\n\n    function registerDomainSeparator(string calldata name, string calldata version) external override {\n        uint256 chainId;\n        /* solhint-disable-next-line no-inline-assembly */\n        assembly { chainId := chainid() }\n\n        bytes memory domainValue = abi.encode(\n            keccak256(bytes(EIP712_DOMAIN_TYPE)),\n            keccak256(bytes(name)),\n            keccak256(bytes(version)),\n            chainId,\n            address(this));\n\n        bytes32 domainHash = keccak256(domainValue);\n\n        domains[domainHash] = true;\n        emit DomainRegistered(domainHash, domainValue);\n    }\n\n    function registerRequestTypeInternal(string memory requestType) internal {\n\n        bytes32 requestTypehash = keccak256(bytes(requestType));\n        typeHashes[requestTypehash] = true;\n        emit RequestTypeRegistered(requestTypehash, requestType);\n    }\n\n    event DomainRegistered(bytes32 indexed domainSeparator, bytes domainValue);\n\n    event RequestTypeRegistered(bytes32 indexed typeHash, string typeStr);\n\n\n    function _verifySig(\n        ForwardRequest memory req,\n        bytes32 domainSeparator,\n        bytes32 requestTypeHash,\n        bytes memory suffixData,\n        bytes memory sig)\n    internal\n    view\n    {\n        require(domains[domainSeparator], \"unregistered domain separator\");\n        require(typeHashes[requestTypeHash], \"unregistered request typehash\");\n        bytes32 digest = keccak256(abi.encodePacked(\n                \"\\x19\\x01\", domainSeparator,\n                keccak256(_getEncoded(req, requestTypeHash, suffixData))\n            ));\n        require(digest.recover(sig) == req.from, \"signature mismatch\");\n    }\n\n    function _getEncoded(\n        ForwardRequest memory req,\n        bytes32 requestTypeHash,\n        bytes memory suffixData\n    )\n    public\n    pure\n    returns (\n        bytes memory\n    ) {\n        return abi.encodePacked(\n            requestTypeHash,\n            abi.encode(\n                req.from,\n                req.to,\n                req.value,\n                req.gas,\n                req.nonce,\n                keccak256(req.data)\n            ),\n            suffixData\n        );\n    }\n}\n",
  "sourcePath": "@opengsn/gsn/contracts/forwarder/Forwarder.sol",
  "compiler": {
    "name": "solc",
    "version": "0.6.10+commit.00c0fcaf.Emscripten.clang"
  },
  "schemaVersion": "3.3.3",
  "updatedAt": "2020-12-24T19:55:00.090Z",
  "devdoc": {
    "methods": {}
  },
  "userdoc": {
    "methods": {}
  }
}