{
  "contractName": "RelayHub",
  "abi": [
    {
      "inputs": [
        {
          "internalType": "contract IStakeManager",
          "name": "_stakeManager",
          "type": "address"
        },
        {
          "internalType": "address",
          "name": "_penalizer",
          "type": "address"
        },
        {
          "internalType": "uint256",
          "name": "_maxWorkerCount",
          "type": "uint256"
        },
        {
          "internalType": "uint256",
          "name": "_gasReserve",
          "type": "uint256"
        },
        {
          "internalType": "uint256",
          "name": "_postOverhead",
          "type": "uint256"
        },
        {
          "internalType": "uint256",
          "name": "_gasOverhead",
          "type": "uint256"
        },
        {
          "internalType": "uint256",
          "name": "_maximumRecipientDeposit",
          "type": "uint256"
        },
        {
          "internalType": "uint256",
          "name": "_minimumUnstakeDelay",
          "type": "uint256"
        },
        {
          "internalType": "uint256",
          "name": "_minimumStake",
          "type": "uint256"
        }
      ],
      "stateMutability": "nonpayable",
      "type": "constructor"
    },
    {
      "anonymous": false,
      "inputs": [
        {
          "indexed": true,
          "internalType": "address",
          "name": "paymaster",
          "type": "address"
        },
        {
          "indexed": true,
          "internalType": "address",
          "name": "from",
          "type": "address"
        },
        {
          "indexed": false,
          "internalType": "uint256",
          "name": "amount",
          "type": "uint256"
        }
      ],
      "name": "Deposited",
      "type": "event"
    },
    {
      "anonymous": false,
      "inputs": [
        {
          "indexed": true,
          "internalType": "address",
          "name": "relayManager",
          "type": "address"
        },
        {
          "indexed": false,
          "internalType": "uint256",
          "name": "baseRelayFee",
          "type": "uint256"
        },
        {
          "indexed": false,
          "internalType": "uint256",
          "name": "pctRelayFee",
          "type": "uint256"
        },
        {
          "indexed": false,
          "internalType": "string",
          "name": "relayUrl",
          "type": "string"
        }
      ],
      "name": "RelayServerRegistered",
      "type": "event"
    },
    {
      "anonymous": false,
      "inputs": [
        {
          "indexed": true,
          "internalType": "address",
          "name": "relayManager",
          "type": "address"
        },
        {
          "indexed": false,
          "internalType": "address[]",
          "name": "newRelayWorkers",
          "type": "address[]"
        },
        {
          "indexed": false,
          "internalType": "uint256",
          "name": "workersCount",
          "type": "uint256"
        }
      ],
      "name": "RelayWorkersAdded",
      "type": "event"
    },
    {
      "anonymous": false,
      "inputs": [
        {
          "indexed": true,
          "internalType": "address",
          "name": "relayManager",
          "type": "address"
        },
        {
          "indexed": true,
          "internalType": "address",
          "name": "paymaster",
          "type": "address"
        },
        {
          "indexed": true,
          "internalType": "address",
          "name": "from",
          "type": "address"
        },
        {
          "indexed": false,
          "internalType": "address",
          "name": "to",
          "type": "address"
        },
        {
          "indexed": false,
          "internalType": "address",
          "name": "relayWorker",
          "type": "address"
        },
        {
          "indexed": false,
          "internalType": "bytes4",
          "name": "selector",
          "type": "bytes4"
        },
        {
          "indexed": false,
          "internalType": "uint256",
          "name": "innerGasUsed",
          "type": "uint256"
        },
        {
          "indexed": false,
          "internalType": "bytes",
          "name": "reason",
          "type": "bytes"
        }
      ],
      "name": "TransactionRejectedByPaymaster",
      "type": "event"
    },
    {
      "anonymous": false,
      "inputs": [
        {
          "indexed": true,
          "internalType": "address",
          "name": "relayManager",
          "type": "address"
        },
        {
          "indexed": true,
          "internalType": "address",
          "name": "relayWorker",
          "type": "address"
        },
        {
          "indexed": true,
          "internalType": "address",
          "name": "from",
          "type": "address"
        },
        {
          "indexed": false,
          "internalType": "address",
          "name": "to",
          "type": "address"
        },
        {
          "indexed": false,
          "internalType": "address",
          "name": "paymaster",
          "type": "address"
        },
        {
          "indexed": false,
          "internalType": "bytes4",
          "name": "selector",
          "type": "bytes4"
        },
        {
          "indexed": false,
          "internalType": "enum IRelayHub.RelayCallStatus",
          "name": "status",
          "type": "uint8"
        },
        {
          "indexed": false,
          "internalType": "uint256",
          "name": "charge",
          "type": "uint256"
        }
      ],
      "name": "TransactionRelayed",
      "type": "event"
    },
    {
      "anonymous": false,
      "inputs": [
        {
          "indexed": false,
          "internalType": "enum IRelayHub.RelayCallStatus",
          "name": "status",
          "type": "uint8"
        },
        {
          "indexed": false,
          "internalType": "bytes",
          "name": "returnValue",
          "type": "bytes"
        }
      ],
      "name": "TransactionResult",
      "type": "event"
    },
    {
      "anonymous": false,
      "inputs": [
        {
          "indexed": true,
          "internalType": "address",
          "name": "account",
          "type": "address"
        },
        {
          "indexed": true,
          "internalType": "address",
          "name": "dest",
          "type": "address"
        },
        {
          "indexed": false,
          "internalType": "uint256",
          "name": "amount",
          "type": "uint256"
        }
      ],
      "name": "Withdrawn",
      "type": "event"
    },
    {
      "inputs": [],
      "name": "gasOverhead",
      "outputs": [
        {
          "internalType": "uint256",
          "name": "",
          "type": "uint256"
        }
      ],
      "stateMutability": "view",
      "type": "function"
    },
    {
      "inputs": [],
      "name": "gasReserve",
      "outputs": [
        {
          "internalType": "uint256",
          "name": "",
          "type": "uint256"
        }
      ],
      "stateMutability": "view",
      "type": "function"
    },
    {
      "inputs": [],
      "name": "maxWorkerCount",
      "outputs": [
        {
          "internalType": "uint256",
          "name": "",
          "type": "uint256"
        }
      ],
      "stateMutability": "view",
      "type": "function"
    },
    {
      "inputs": [],
      "name": "maximumRecipientDeposit",
      "outputs": [
        {
          "internalType": "uint256",
          "name": "",
          "type": "uint256"
        }
      ],
      "stateMutability": "view",
      "type": "function"
    },
    {
      "inputs": [],
      "name": "minimumStake",
      "outputs": [
        {
          "internalType": "uint256",
          "name": "",
          "type": "uint256"
        }
      ],
      "stateMutability": "view",
      "type": "function"
    },
    {
      "inputs": [],
      "name": "minimumUnstakeDelay",
      "outputs": [
        {
          "internalType": "uint256",
          "name": "",
          "type": "uint256"
        }
      ],
      "stateMutability": "view",
      "type": "function"
    },
    {
      "inputs": [],
      "name": "penalizer",
      "outputs": [
        {
          "internalType": "address",
          "name": "",
          "type": "address"
        }
      ],
      "stateMutability": "view",
      "type": "function"
    },
    {
      "inputs": [],
      "name": "postOverhead",
      "outputs": [
        {
          "internalType": "uint256",
          "name": "",
          "type": "uint256"
        }
      ],
      "stateMutability": "view",
      "type": "function"
    },
    {
      "inputs": [],
      "name": "stakeManager",
      "outputs": [
        {
          "internalType": "contract IStakeManager",
          "name": "",
          "type": "address"
        }
      ],
      "stateMutability": "view",
      "type": "function"
    },
    {
      "inputs": [],
      "name": "versionHub",
      "outputs": [
        {
          "internalType": "string",
          "name": "",
          "type": "string"
        }
      ],
      "stateMutability": "view",
      "type": "function"
    },
    {
      "inputs": [
        {
          "internalType": "address",
          "name": "",
          "type": "address"
        }
      ],
      "name": "workerCount",
      "outputs": [
        {
          "internalType": "uint256",
          "name": "",
          "type": "uint256"
        }
      ],
      "stateMutability": "view",
      "type": "function"
    },
    {
      "inputs": [
        {
          "internalType": "address",
          "name": "",
          "type": "address"
        }
      ],
      "name": "workerToManager",
      "outputs": [
        {
          "internalType": "address",
          "name": "",
          "type": "address"
        }
      ],
      "stateMutability": "view",
      "type": "function"
    },
    {
      "inputs": [
        {
          "internalType": "uint256",
          "name": "baseRelayFee",
          "type": "uint256"
        },
        {
          "internalType": "uint256",
          "name": "pctRelayFee",
          "type": "uint256"
        },
        {
          "internalType": "string",
          "name": "url",
          "type": "string"
        }
      ],
      "name": "registerRelayServer",
      "outputs": [],
      "stateMutability": "nonpayable",
      "type": "function"
    },
    {
      "inputs": [
        {
          "internalType": "address[]",
          "name": "newRelayWorkers",
          "type": "address[]"
        }
      ],
      "name": "addRelayWorkers",
      "outputs": [],
      "stateMutability": "nonpayable",
      "type": "function"
    },
    {
      "inputs": [
        {
          "internalType": "address",
          "name": "target",
          "type": "address"
        }
      ],
      "name": "depositFor",
      "outputs": [],
      "stateMutability": "payable",
      "type": "function"
    },
    {
      "inputs": [
        {
          "internalType": "address",
          "name": "target",
          "type": "address"
        }
      ],
      "name": "balanceOf",
      "outputs": [
        {
          "internalType": "uint256",
          "name": "",
          "type": "uint256"
        }
      ],
      "stateMutability": "view",
      "type": "function"
    },
    {
      "inputs": [
        {
          "internalType": "uint256",
          "name": "amount",
          "type": "uint256"
        },
        {
          "internalType": "address payable",
          "name": "dest",
          "type": "address"
        }
      ],
      "name": "withdraw",
      "outputs": [],
      "stateMutability": "nonpayable",
      "type": "function"
    },
    {
      "inputs": [
        {
          "internalType": "uint256",
          "name": "paymasterMaxAcceptanceBudget",
          "type": "uint256"
        },
        {
          "components": [
            {
              "components": [
                {
                  "internalType": "address",
                  "name": "from",
                  "type": "address"
                },
                {
                  "internalType": "address",
                  "name": "to",
                  "type": "address"
                },
                {
                  "internalType": "uint256",
                  "name": "value",
                  "type": "uint256"
                },
                {
                  "internalType": "uint256",
                  "name": "gas",
                  "type": "uint256"
                },
                {
                  "internalType": "uint256",
                  "name": "nonce",
                  "type": "uint256"
                },
                {
                  "internalType": "bytes",
                  "name": "data",
                  "type": "bytes"
                }
              ],
              "internalType": "struct IForwarder.ForwardRequest",
              "name": "request",
              "type": "tuple"
            },
            {
              "components": [
                {
                  "internalType": "uint256",
                  "name": "gasPrice",
                  "type": "uint256"
                },
                {
                  "internalType": "uint256",
                  "name": "pctRelayFee",
                  "type": "uint256"
                },
                {
                  "internalType": "uint256",
                  "name": "baseRelayFee",
                  "type": "uint256"
                },
                {
                  "internalType": "address",
                  "name": "relayWorker",
                  "type": "address"
                },
                {
                  "internalType": "address",
                  "name": "paymaster",
                  "type": "address"
                },
                {
                  "internalType": "bytes",
                  "name": "paymasterData",
                  "type": "bytes"
                },
                {
                  "internalType": "uint256",
                  "name": "clientId",
                  "type": "uint256"
                },
                {
                  "internalType": "address",
                  "name": "forwarder",
                  "type": "address"
                }
              ],
              "internalType": "struct GsnTypes.RelayData",
              "name": "relayData",
              "type": "tuple"
            }
          ],
          "internalType": "struct GsnTypes.RelayRequest",
          "name": "relayRequest",
          "type": "tuple"
        },
        {
          "internalType": "bytes",
          "name": "signature",
          "type": "bytes"
        },
        {
          "internalType": "bytes",
          "name": "approvalData",
          "type": "bytes"
        },
        {
          "internalType": "uint256",
          "name": "externalGasLimit",
          "type": "uint256"
        }
      ],
      "name": "relayCall",
      "outputs": [
        {
          "internalType": "bool",
          "name": "paymasterAccepted",
          "type": "bool"
        },
        {
          "internalType": "bytes",
          "name": "returnValue",
          "type": "bytes"
        }
      ],
      "stateMutability": "nonpayable",
      "type": "function"
    },
    {
      "inputs": [
        {
          "components": [
            {
              "components": [
                {
                  "internalType": "address",
                  "name": "from",
                  "type": "address"
                },
                {
                  "internalType": "address",
                  "name": "to",
                  "type": "address"
                },
                {
                  "internalType": "uint256",
                  "name": "value",
                  "type": "uint256"
                },
                {
                  "internalType": "uint256",
                  "name": "gas",
                  "type": "uint256"
                },
                {
                  "internalType": "uint256",
                  "name": "nonce",
                  "type": "uint256"
                },
                {
                  "internalType": "bytes",
                  "name": "data",
                  "type": "bytes"
                }
              ],
              "internalType": "struct IForwarder.ForwardRequest",
              "name": "request",
              "type": "tuple"
            },
            {
              "components": [
                {
                  "internalType": "uint256",
                  "name": "gasPrice",
                  "type": "uint256"
                },
                {
                  "internalType": "uint256",
                  "name": "pctRelayFee",
                  "type": "uint256"
                },
                {
                  "internalType": "uint256",
                  "name": "baseRelayFee",
                  "type": "uint256"
                },
                {
                  "internalType": "address",
                  "name": "relayWorker",
                  "type": "address"
                },
                {
                  "internalType": "address",
                  "name": "paymaster",
                  "type": "address"
                },
                {
                  "internalType": "bytes",
                  "name": "paymasterData",
                  "type": "bytes"
                },
                {
                  "internalType": "uint256",
                  "name": "clientId",
                  "type": "uint256"
                },
                {
                  "internalType": "address",
                  "name": "forwarder",
                  "type": "address"
                }
              ],
              "internalType": "struct GsnTypes.RelayData",
              "name": "relayData",
              "type": "tuple"
            }
          ],
          "internalType": "struct GsnTypes.RelayRequest",
          "name": "relayRequest",
          "type": "tuple"
        },
        {
          "internalType": "bytes",
          "name": "signature",
          "type": "bytes"
        },
        {
          "internalType": "bytes",
          "name": "approvalData",
          "type": "bytes"
        },
        {
          "components": [
            {
              "internalType": "uint256",
              "name": "acceptanceBudget",
              "type": "uint256"
            },
            {
              "internalType": "uint256",
              "name": "preRelayedCallGasLimit",
              "type": "uint256"
            },
            {
              "internalType": "uint256",
              "name": "postRelayedCallGasLimit",
              "type": "uint256"
            }
          ],
          "internalType": "struct IPaymaster.GasLimits",
          "name": "gasLimits",
          "type": "tuple"
        },
        {
          "internalType": "uint256",
          "name": "totalInitialGas",
          "type": "uint256"
        },
        {
          "internalType": "uint256",
          "name": "maxPossibleGas",
          "type": "uint256"
        }
      ],
      "name": "innerRelayCall",
      "outputs": [
        {
          "internalType": "enum IRelayHub.RelayCallStatus",
          "name": "",
          "type": "uint8"
        },
        {
          "internalType": "bytes",
          "name": "",
          "type": "bytes"
        }
      ],
      "stateMutability": "nonpayable",
      "type": "function"
    },
    {
      "inputs": [
        {
          "internalType": "uint256",
          "name": "gasUsed",
          "type": "uint256"
        },
        {
          "components": [
            {
              "internalType": "uint256",
              "name": "gasPrice",
              "type": "uint256"
            },
            {
              "internalType": "uint256",
              "name": "pctRelayFee",
              "type": "uint256"
            },
            {
              "internalType": "uint256",
              "name": "baseRelayFee",
              "type": "uint256"
            },
            {
              "internalType": "address",
              "name": "relayWorker",
              "type": "address"
            },
            {
              "internalType": "address",
              "name": "paymaster",
              "type": "address"
            },
            {
              "internalType": "bytes",
              "name": "paymasterData",
              "type": "bytes"
            },
            {
              "internalType": "uint256",
              "name": "clientId",
              "type": "uint256"
            },
            {
              "internalType": "address",
              "name": "forwarder",
              "type": "address"
            }
          ],
          "internalType": "struct GsnTypes.RelayData",
          "name": "relayData",
          "type": "tuple"
        }
      ],
      "name": "calculateCharge",
      "outputs": [
        {
          "internalType": "uint256",
          "name": "",
          "type": "uint256"
        }
      ],
      "stateMutability": "view",
      "type": "function"
    },
    {
      "inputs": [
        {
          "internalType": "address",
          "name": "relayManager",
          "type": "address"
        }
      ],
      "name": "isRelayManagerStaked",
      "outputs": [
        {
          "internalType": "bool",
          "name": "",
          "type": "bool"
        }
      ],
      "stateMutability": "view",
      "type": "function"
    },
    {
      "inputs": [
        {
          "internalType": "address",
          "name": "relayWorker",
          "type": "address"
        },
        {
          "internalType": "address payable",
          "name": "beneficiary",
          "type": "address"
        }
      ],
      "name": "penalize",
      "outputs": [],
      "stateMutability": "nonpayable",
      "type": "function"
    }
  ],
  "bytecode": "0x60806040526040518060400160405280601b81526020017f322e302e302b6f70656e67736e2e6875622e6972656c61796875620000000000815250600090805190602001906200005192919062000147565b503480156200005f57600080fd5b50604051620055cf380380620055cf83398181016040528101906200008591906200023b565b88600860006101000a81548173ffffffffffffffffffffffffffffffffffffffff021916908373ffffffffffffffffffffffffffffffffffffffff16021790555087600960006101000a81548173ffffffffffffffffffffffffffffffffffffffff021916908373ffffffffffffffffffffffffffffffffffffffff16021790555086600781905550856006819055508460058190555083600481905550826003819055508160028190555080600181905550505050505050505050620003b4565b828054600181600116156101000203166002900490600052602060002090601f016020900481019282601f106200018a57805160ff1916838001178555620001bb565b82800160010185558215620001bb579182015b82811115620001ba5782518255916020019190600101906200019d565b5b509050620001ca9190620001ce565b5090565b620001f391905b80821115620001ef576000816000905550600101620001d5565b5090565b90565b600081519050620002078162000366565b92915050565b6000815190506200021e8162000380565b92915050565b60008151905062000235816200039a565b92915050565b60008060008060008060008060006101208a8c0312156200025b57600080fd5b60006200026b8c828d016200020d565b99505060206200027e8c828d01620001f6565b9850506040620002918c828d0162000224565b9750506060620002a48c828d0162000224565b9650506080620002b78c828d0162000224565b95505060a0620002ca8c828d0162000224565b94505060c0620002dd8c828d0162000224565b93505060e0620002f08c828d0162000224565b925050610100620003048c828d0162000224565b9150509295985092959850929598565b600062000321826200033c565b9050919050565b6000620003358262000314565b9050919050565b600073ffffffffffffffffffffffffffffffffffffffff82169050919050565b6000819050919050565b620003718162000314565b81146200037d57600080fd5b50565b6200038b8162000328565b81146200039757600080fd5b50565b620003a5816200035c565b8114620003b157600080fd5b50565b61520b80620003c46000396000f3fe6080604052600436106101345760003560e01c8063aa67c919116100ab578063d904c7321161006f578063d904c73214610441578063e5fad9781461046c578063ebcd31ac14610497578063ec5ffac2146104c0578063eea7570e146104eb578063fbb446071461051657610134565b8063aa67c91914610369578063ba3ecc5b14610385578063c2da0786146103b0578063c4775a68146103d9578063ca998f561461040457610134565b806370a08231116100fd57806370a082311461024557806371116320146102825780637542ff95146102ad57806383b71871146102d857806383fea4ef1461030157806386a16f8f1461032c57610134565b8062f714ce14610139578063194ac3071461016257806327b4256a1461019f5780632ad311b5146101dd5780633a3e83ac1461021a575b600080fd5b34801561014557600080fd5b50610160600480360381019061015b91906135a0565b610554565b005b34801561016e57600080fd5b50610189600480360381019061018491906132a3565b610721565b6040516101969190614c66565b60405180910390f35b3480156101ab57600080fd5b506101c660048036038101906101c19190613630565b610739565b6040516101d49291906146d8565b60405180910390f35b3480156101e957600080fd5b5061020460048036038101906101ff91906132a3565b6112bc565b60405161021191906146bd565b60405180910390f35b34801561022657600080fd5b5061022f61137a565b60405161023c9190614c66565b60405180910390f35b34801561025157600080fd5b5061026c600480360381019061026791906132a3565b611380565b6040516102799190614c66565b60405180910390f35b34801561028e57600080fd5b506102976113c9565b6040516102a49190614c66565b60405180910390f35b3480156102b957600080fd5b506102c26113cf565b6040516102cf9190614856565b60405180910390f35b3480156102e457600080fd5b506102ff60048036038101906102fa91906136f8565b6113f5565b005b34801561030d57600080fd5b5061031661151f565b6040516103239190614c66565b60405180910390f35b34801561033857600080fd5b50610353600480360381019061034e91906135dc565b611525565b6040516103609190614c66565b60405180910390f35b610383600480360381019061037e91906132a3565b611598565b005b34801561039157600080fd5b5061039a6116e0565b6040516103a79190614c66565b60405180910390f35b3480156103bc57600080fd5b506103d760048036038101906103d29190613308565b6116e6565b005b3480156103e557600080fd5b506103ee611a80565b6040516103fb9190614547565b60405180910390f35b34801561041057600080fd5b5061042b600480360381019061042691906132a3565b611aa6565b6040516104389190614547565b60405180910390f35b34801561044d57600080fd5b50610456611ad9565b60405161046391906148a1565b60405180910390f35b34801561047857600080fd5b50610481611b77565b60405161048e9190614c66565b60405180910390f35b3480156104a357600080fd5b506104be60048036038101906104b991906132cc565b611b7d565b005b3480156104cc57600080fd5b506104d5611e79565b6040516104e29190614c66565b60405180910390f35b3480156104f757600080fd5b50610500611e7f565b60405161050d9190614c66565b60405180910390f35b34801561052257600080fd5b5061053d6004803603810190610538919061349b565b611e85565b60405161054b929190614871565b60405180910390f35b600033905082600c60008373ffffffffffffffffffffffffffffffffffffffff1673ffffffffffffffffffffffffffffffffffffffff1681526020019081526020016000205410156105db576040517f08c379a00000000000000000000000000000000000000000000000000000000081526004016105d290614a83565b60405180910390fd5b61062d83600c60008473ffffffffffffffffffffffffffffffffffffffff1673ffffffffffffffffffffffffffffffffffffffff1681526020019081526020016000205461233590919063ffffffff16565b600c60008373ffffffffffffffffffffffffffffffffffffffff1673ffffffffffffffffffffffffffffffffffffffff168152602001908152602001600020819055508173ffffffffffffffffffffffffffffffffffffffff166108fc849081150290604051600060405180830381858888f193505050501580156106b6573d6000803e3d6000fd5b508173ffffffffffffffffffffffffffffffffffffffff168173ffffffffffffffffffffffffffffffffffffffff167fd1c19fbcd4551a5edfb66d43d2e337c04837afda3482b42bdf569a8fccdae5fb856040516107149190614c66565b60405180910390a3505050565b600b6020528060005260406000206000915090505481565b60006060610745612e2e565b6107b18980600001906107589190614d18565b8060a001906107679190614cc1565b8080601f016020809104026020016040519081016040528093929190818152602001838380828437600081840152601f19601f82011690508083019250505050505050600061237f565b81602001907bffffffffffffffffffffffffffffffffffffffffffffffffffffffff191690817bffffffffffffffffffffffffffffffffffffffffffffffffffffffff1916815250503273ffffffffffffffffffffffffffffffffffffffff163373ffffffffffffffffffffffffffffffffffffffff1614610868576040517f08c379a000000000000000000000000000000000000000000000000000000000815260040161085f906149e3565b60405180910390fd5b600073ffffffffffffffffffffffffffffffffffffffff16600a60003373ffffffffffffffffffffffffffffffffffffffff1673ffffffffffffffffffffffffffffffffffffffff16815260200190815260200160002060009054906101000a900473ffffffffffffffffffffffffffffffffffffffff1673ffffffffffffffffffffffffffffffffffffffff161415610937576040517f08c379a000000000000000000000000000000000000000000000000000000000815260040161092e90614b03565b60405180910390fd5b3373ffffffffffffffffffffffffffffffffffffffff1689806020019061095e9190614d3c565b606001602081019061097091906132a3565b73ffffffffffffffffffffffffffffffffffffffff16146109c6576040517f08c379a00000000000000000000000000000000000000000000000000000000081526004016109bd90614aa3565b60405180910390fd5b610a2e600a60003373ffffffffffffffffffffffffffffffffffffffff1673ffffffffffffffffffffffffffffffffffffffff16815260200190815260200160002060009054906101000a900473ffffffffffffffffffffffffffffffffffffffff166112bc565b610a6d576040517f08c379a0000000000000000000000000000000000000000000000000000000008152600401610a64906149c3565b60405180910390fd5b3a898060200190610a7e9190614d3c565b600001351115610ac3576040517f08c379a0000000000000000000000000000000000000000000000000000000008152600401610aba90614943565b60405180910390fd5b45841115610b06576040517f08c379a0000000000000000000000000000000000000000000000000000000008152600401610afd906148c3565b60405180910390fd5b610b118a8a866123ff565b826080018360e00182815250829052505060006006546040603f5a0281610b3457fe5b040390505a82610100018181525050600060055460045487840101019050600060603073ffffffffffffffffffffffffffffffffffffffff168463fbb4460760e01b8f8f8f8f8f8c608001515a8c038e60e00151604051602401610b9f989796959493929190614b8d565b604051602081830303815290604052907bffffffffffffffffffffffffffffffffffffffffffffffffffffffff19166020820180517bffffffffffffffffffffffffffffffffffffffffffffffffffffffff8381831617835250505050604051610c0991906144b2565b60006040518083038160008787f1925050503d8060008114610c47576040519150601f19603f3d011682016040523d82523d6000602084013e610c4c565b606091505b5091509150818560000190151590811515815250505a856101000151038560c001818152505080806020019051810190610c86919061341e565b8660a00187606001829052826006811115610c9d57fe5b6006811115610ca857fe5b815250505060008560600151511115610cfd577fa1478a4242848419db824250a0dddc645dca0d6a9b12ab1fd79b00145a0ba98e8560a001518660600151604051610cf4929190614871565b60405180910390a15b505050508060000151610ef6578060800151600001518160c00151108015610d89575060026006811115610d2d57fe5b8160a001516006811115610d3d57fe5b1480610d63575060036006811115610d5157fe5b8160a001516006811115610d6157fe5b145b80610d88575060046006811115610d7657fe5b8160a001516006811115610d8657fe5b145b5b15610ef55760009250888060000190610da29190614d18565b6000016020810190610db491906132a3565b73ffffffffffffffffffffffffffffffffffffffff16898060200190610dda9190614d3c565b6080016020810190610dec91906132a3565b73ffffffffffffffffffffffffffffffffffffffff16600a60003373ffffffffffffffffffffffffffffffffffffffff1673ffffffffffffffffffffffffffffffffffffffff16815260200190815260200160002060009054906101000a900473ffffffffffffffffffffffffffffffffffffffff1673ffffffffffffffffffffffffffffffffffffffff167fddb88484d11f800b80fe63aa67488ec56ee001d85896d528912c5d850cbcd06a8c8060000190610ea99190614d18565b6020016020810190610ebb91906132a3565b3386602001518760c001518860600151604051610edc959493929190614562565b60405180910390a46000816060015192509250506112b0565b5b60006004545a86030190506000610f1c828c8060200190610f179190614d3c565b611525565b9050610f9181600c60008e8060200190610f369190614d3c565b6080016020810190610f4891906132a3565b73ffffffffffffffffffffffffffffffffffffffff1673ffffffffffffffffffffffffffffffffffffffff1681526020019081526020016000205461233590919063ffffffff16565b600c60008d8060200190610fa59190614d3c565b6080016020810190610fb791906132a3565b73ffffffffffffffffffffffffffffffffffffffff1673ffffffffffffffffffffffffffffffffffffffff168152602001908152602001600020819055506110a681600c6000600a60003373ffffffffffffffffffffffffffffffffffffffff1673ffffffffffffffffffffffffffffffffffffffff16815260200190815260200160002060009054906101000a900473ffffffffffffffffffffffffffffffffffffffff1673ffffffffffffffffffffffffffffffffffffffff1673ffffffffffffffffffffffffffffffffffffffff1681526020019081526020016000205461265790919063ffffffff16565b600c6000600a60003373ffffffffffffffffffffffffffffffffffffffff1673ffffffffffffffffffffffffffffffffffffffff16815260200190815260200160002060009054906101000a900473ffffffffffffffffffffffffffffffffffffffff1673ffffffffffffffffffffffffffffffffffffffff1673ffffffffffffffffffffffffffffffffffffffff168152602001908152602001600020819055508a80600001906111589190614d18565b600001602081019061116a91906132a3565b73ffffffffffffffffffffffffffffffffffffffff163373ffffffffffffffffffffffffffffffffffffffff16600a60003373ffffffffffffffffffffffffffffffffffffffff1673ffffffffffffffffffffffffffffffffffffffff16815260200190815260200160002060009054906101000a900473ffffffffffffffffffffffffffffffffffffffff1673ffffffffffffffffffffffffffffffffffffffff167fc9aa709786a3d5fe2cc947abc1ba8cbb0f6decb57aa74b84eb7f558125fee4548e806000019061123e9190614d18565b602001602081019061125091906132a3565b8f80602001906112609190614d3c565b608001602081019061127291906132a3565b88602001518960a001518860405161128e9594939291906145f3565b60405180910390a4600160405180602001604052806000815250945094505050505b97509795505050505050565b6000600860009054906101000a900473ffffffffffffffffffffffffffffffffffffffff1673ffffffffffffffffffffffffffffffffffffffff16636de8dd4183306001546002546040518563ffffffff1660e01b81526004016113239493929190614646565b60206040518083038186803b15801561133b57600080fd5b505afa15801561134f573d6000803e3d6000fd5b505050506040513d601f19601f82011682018060405250810190611373919061334d565b9050919050565b60035481565b6000600c60008373ffffffffffffffffffffffffffffffffffffffff1673ffffffffffffffffffffffffffffffffffffffff168152602001908152602001600020549050919050565b60025481565b600860009054906101000a900473ffffffffffffffffffffffffffffffffffffffff1681565b6000339050611403816112bc565b611442576040517f08c379a0000000000000000000000000000000000000000000000000000000008152600401611439906149c3565b60405180910390fd5b6000600b60008373ffffffffffffffffffffffffffffffffffffffff1673ffffffffffffffffffffffffffffffffffffffff16815260200190815260200160002054116114c4576040517f08c379a00000000000000000000000000000000000000000000000000000000081526004016114bb90614a03565b60405180910390fd5b8073ffffffffffffffffffffffffffffffffffffffff167f77f2d8afec4b9d82ffa0dea525320620292bd1067f575964994d5c4501479aed868686866040516115109493929190614c81565b60405180910390a25050505050565b60045481565b600061159061157d606461156f61154a6064876020013561265790919063ffffffff16565b6115618760000135896126ac90919063ffffffff16565b6126ac90919063ffffffff16565b61271c90919063ffffffff16565b836040013561265790919063ffffffff16565b905092915050565b60003490506003548111156115e2576040517f08c379a00000000000000000000000000000000000000000000000000000000081526004016115d9906149a3565b60405180910390fd5b61163481600c60008573ffffffffffffffffffffffffffffffffffffffff1673ffffffffffffffffffffffffffffffffffffffff1681526020019081526020016000205461265790919063ffffffff16565b600c60008473ffffffffffffffffffffffffffffffffffffffff1673ffffffffffffffffffffffffffffffffffffffff168152602001908152602001600020819055503373ffffffffffffffffffffffffffffffffffffffff168273ffffffffffffffffffffffffffffffffffffffff167f8752a472e571a816aea92eec8dae9baf628e840f4929fbcc2d155e6233ff68a7836040516116d49190614c66565b60405180910390a35050565b60055481565b600033905082829050600b60008373ffffffffffffffffffffffffffffffffffffffff1673ffffffffffffffffffffffffffffffffffffffff1681526020019081526020016000205401600b60008373ffffffffffffffffffffffffffffffffffffffff1673ffffffffffffffffffffffffffffffffffffffff16815260200190815260200160002081905550600754600b60008373ffffffffffffffffffffffffffffffffffffffff1673ffffffffffffffffffffffffffffffffffffffff1681526020019081526020016000205411156117f7576040517f08c379a00000000000000000000000000000000000000000000000000000000081526004016117ee90614a63565b60405180910390fd5b611800816112bc565b61183f576040517f08c379a0000000000000000000000000000000000000000000000000000000008152600401611836906149c3565b60405180910390fd5b60008090505b838390508110156119e957600073ffffffffffffffffffffffffffffffffffffffff16600a600086868581811061187857fe5b905060200201602081019061188d91906132a3565b73ffffffffffffffffffffffffffffffffffffffff1673ffffffffffffffffffffffffffffffffffffffff16815260200190815260200160002060009054906101000a900473ffffffffffffffffffffffffffffffffffffffff1673ffffffffffffffffffffffffffffffffffffffff161461193e576040517f08c379a0000000000000000000000000000000000000000000000000000000008152600401611935906148e3565b60405180910390fd5b81600a600086868581811061194f57fe5b905060200201602081019061196491906132a3565b73ffffffffffffffffffffffffffffffffffffffff1673ffffffffffffffffffffffffffffffffffffffff16815260200190815260200160002060006101000a81548173ffffffffffffffffffffffffffffffffffffffff021916908373ffffffffffffffffffffffffffffffffffffffff1602179055508080600101915050611845565b508073ffffffffffffffffffffffffffffffffffffffff167febf4a9bffb39f7c5dbf3f65540183b9381ae226ac3d0a45b4cad484713bd4a288484600b60008673ffffffffffffffffffffffffffffffffffffffff1673ffffffffffffffffffffffffffffffffffffffff16815260200190815260200160002054604051611a739392919061468b565b60405180910390a2505050565b600960009054906101000a900473ffffffffffffffffffffffffffffffffffffffff1681565b600a6020528060005260406000206000915054906101000a900473ffffffffffffffffffffffffffffffffffffffff1681565b60008054600181600116156101000203166002900480601f016020809104026020016040519081016040528092919081815260200182805460018160011615610100020316600290048015611b6f5780601f10611b4457610100808354040283529160200191611b6f565b820191906000526020600020905b815481529060010190602001808311611b5257829003601f168201915b505050505081565b60075481565b600960009054906101000a900473ffffffffffffffffffffffffffffffffffffffff1673ffffffffffffffffffffffffffffffffffffffff163373ffffffffffffffffffffffffffffffffffffffff1614611c0d576040517f08c379a0000000000000000000000000000000000000000000000000000000008152600401611c0490614a23565b60405180910390fd5b6000600a60008473ffffffffffffffffffffffffffffffffffffffff1673ffffffffffffffffffffffffffffffffffffffff16815260200190815260200160002060009054906101000a900473ffffffffffffffffffffffffffffffffffffffff169050600073ffffffffffffffffffffffffffffffffffffffff168173ffffffffffffffffffffffffffffffffffffffff161415611ce1576040517f08c379a0000000000000000000000000000000000000000000000000000000008152600401611cd890614b03565b60405180910390fd5b611cea816112bc565b611d29576040517f08c379a0000000000000000000000000000000000000000000000000000000008152600401611d20906149c3565b60405180910390fd5b611d31612eb3565b600860009054906101000a900473ffffffffffffffffffffffffffffffffffffffff1673ffffffffffffffffffffffffffffffffffffffff1663c3453153836040518263ffffffff1660e01b8152600401611d8c9190614547565b60806040518083038186803b158015611da457600080fd5b505afa158015611db8573d6000803e3d6000fd5b505050506040513d601f19601f82011682018060405250810190611ddc9190613577565b9050600860009054906101000a900473ffffffffffffffffffffffffffffffffffffffff1673ffffffffffffffffffffffffffffffffffffffff166309a08af4838584600001516040518463ffffffff1660e01b8152600401611e41939291906145bc565b600060405180830381600087803b158015611e5b57600080fd5b505af1158015611e6f573d6000803e3d6000fd5b5050505050505050565b60015481565b60065481565b60006060611e91612ef1565b3073ffffffffffffffffffffffffffffffffffffffff163373ffffffffffffffffffffffffffffffffffffffff1614611eff576040517f08c379a0000000000000000000000000000000000000000000000000000000008152600401611ef690614903565b60405180910390fd5b600c60008c8060200190611f139190614d3c565b6080016020810190611f2591906132a3565b73ffffffffffffffffffffffffffffffffffffffff1673ffffffffffffffffffffffffffffffffffffffff1681526020019081526020016000205481600001818152505063e5c1244660e01b8b8b8b8b8b89604051602401611f8c96959493929190614c08565b604051602081830303815290604052907bffffffffffffffffffffffffffffffffffffffffffffffffffffffff19166020820180517bffffffffffffffffffffffffffffffffffffffffffffffffffffffff83818316178352505050508160a00181905250600060608c80602001906120059190614d3c565b608001602081019061201791906132a3565b73ffffffffffffffffffffffffffffffffffffffff1688602001358460a0015160405161204491906144b2565b60006040518083038160008787f1925050503d8060008114612082576040519150601f19603f3d011682016040523d82523d6000602084013e612087565b606091505b508092508193505050816120aa5761209e81612766565b6120a9600282612775565b5b808060200190518101906120be91906133ca565b846080018560c00182151515158152508290525050505060006120e28c8c8c6127ae565b84604001856060018290528215151515815250829350505050806121105761210f60038360600151612775565b5b8160c00151801561212357508160400151155b156121385761213760048360600151612775565b5b50638e9483b060e01b816080015182604001515a88038e806020019061215e9190614d3c565b6040516024016121719493929190614803565b604051602081830303815290604052907bffffffffffffffffffffffffffffffffffffffffffffffffffffffff19166020820180517bffffffffffffffffffffffffffffffffffffffffffffffffffffffff83818316178352505050508160a00181905250600060608c80602001906121ea9190614d3c565b60800160208101906121fc91906132a3565b73ffffffffffffffffffffffffffffffffffffffff1688604001358460a0015160405161222991906144b2565b60006040518083038160008787f1925050503d8060008114612267576040519150601f19603f3d011682016040523d82523d6000602084013e61226c565b606091505b50915091508161228257612281600582612775565b5b50508060000151600c60008d806020019061229d9190614d3c565b60800160208101906122af91906132a3565b73ffffffffffffffffffffffffffffffffffffffff1673ffffffffffffffffffffffffffffffffffffffff16815260200190815260200160002054101561230b5761230a600660405180602001604052806000815250612775565b5b806040015161231b57600161231e565b60005b816060015192509250509850989650505050505050565b600061237783836040518060400160405280601e81526020017f536166654d6174683a207375627472616374696f6e206f766572666c6f7700008152506129ee565b905092915050565b600060048201835110156123c8576040517f08c379a00000000000000000000000000000000000000000000000000000000081526004016123bf90614ae3565b60405180910390fd5b6020820183015190507fffffffff000000000000000000000000000000000000000000000000000000008116905080905092915050565b612407612f35565b60008380602001906124199190614d3c565b608001602081019061242b91906132a3565b73ffffffffffffffffffffffffffffffffffffffff16635ea54eee61c3506040518263ffffffff1660e01b815260040160606040518083038187803b15801561247357600080fd5b5086fa158015612487573d6000803e3d6000fd5b50505050506040513d601f19601f820116820180604052508101906124ac9190613472565b915081600001518510156124f5576040517f08c379a00000000000000000000000000000000000000000000000000000000081526004016124ec90614963565b60405180910390fd5b6125498480600001906125089190614d18565b6060013561253b846040015161252d866020015160045461265790919063ffffffff16565b61265790919063ffffffff16565b61265790919063ffffffff16565b90508083101561258e576040517f08c379a000000000000000000000000000000000000000000000000000000000815260040161258590614983565b60405180910390fd5b60006125a9828680602001906125a49190614d3c565b611525565b9050600c60008680602001906125bf9190614d3c565b60800160208101906125d191906132a3565b73ffffffffffffffffffffffffffffffffffffffff1673ffffffffffffffffffffffffffffffffffffffff1681526020019081526020016000205481111561264e576040517f08c379a000000000000000000000000000000000000000000000000000000000815260040161264590614ac3565b60405180910390fd5b50935093915050565b6000808284019050838110156126a2576040517f08c379a000000000000000000000000000000000000000000000000000000000815260040161269990614923565b60405180910390fd5b8091505092915050565b6000808314156126bf5760009050612716565b60008284029050828482816126d057fe5b0414612711576040517f08c379a000000000000000000000000000000000000000000000000000000000815260040161270890614a43565b60405180910390fd5b809150505b92915050565b600061275e83836040518060400160405280601a81526020017f536166654d6174683a206469766973696f6e206279207a65726f000000000000815250612a49565b905092915050565b61277281610400612aaa565b50565b6060828260405160200161278a929190614871565b60405160208183030381529060405290506127a481612766565b8051602082018181fd5b60008060606127bb612f56565b60606127c688612abb565b9150915060006127f68980602001906127df9190614d3c565b60e00160208101906127f191906132a3565b612c3a565b90508880602001906128089190614d3c565b60e001602081019061281a91906132a3565b73ffffffffffffffffffffffffffffffffffffffff1663cdf5735a60e01b84836040518060400160405280600c81526020017f52656c61795265717565737400000000000000000000000000000000000000008152506040518060800160405280604a815260200161518c604a91396040518060e0016040528060a181526020016150eb60a191396040516020016128b29190614510565b6040516020818303038152906040526040516020016128d3939291906144c9565b60405160208183030381529060405280519060200120868d8d60405160240161290196959493929190614b23565b604051602081830303815290604052907bffffffffffffffffffffffffffffffffffffffffffffffffffffffff19166020820180517bffffffffffffffffffffffffffffffffffffffffffffffffffffffff838183161783525050505060405161296b91906144b2565b6000604051808303816000865af19150503d80600081146129a8576040519150601f19603f3d011682016040523d82523d6000602084013e6129ad565b606091505b50809550819750505085156129d957838060200190518101906129d09190613376565b80955081965050505b6129e284612766565b50505093509350939050565b6000838311158290612a36576040517f08c379a0000000000000000000000000000000000000000000000000000000008152600401612a2d91906148a1565b60405180910390fd5b5060008385039050809150509392505050565b60008083118290612a90576040517f08c379a0000000000000000000000000000000000000000000000000000000008152600401612a8791906148a1565b60405180910390fd5b506000838581612a9c57fe5b049050809150509392505050565b8082511115612ab7578082525b5050565b612ac3612f56565b60606040518060c00160405280848060000190612ae09190614d18565b6000016020810190612af291906132a3565b73ffffffffffffffffffffffffffffffffffffffff168152602001848060000190612b1d9190614d18565b6020016020810190612b2f91906132a3565b73ffffffffffffffffffffffffffffffffffffffff168152602001848060000190612b5a9190614d18565b604001358152602001848060000190612b739190614d18565b606001358152602001848060000190612b8c9190614d18565b608001358152602001848060000190612ba59190614d18565b8060a00190612bb49190614cc1565b8080601f016020809104026020016040519081016040528093929190818152602001838380828437600081840152601f19601f820116905080830192505050505050508152509150612c14838060200190612c0f9190614d3c565b612cf3565b604051602001612c249190614708565b6040516020818303038152906040529050915091565b6000612cec60405180608001604052806040518060400160405280601781526020017f47534e2052656c61796564205472616e73616374696f6e00000000000000000081525081526020016040518060400160405280600181526020017f32000000000000000000000000000000000000000000000000000000000000008152508152602001612cc8612dbd565b81526020018473ffffffffffffffffffffffffffffffffffffffff16815250612dc5565b9050919050565b60006040518060e0016040528060a181526020016150eb60a1913980519060200120826000013583602001358460400135856060016020810190612d3791906132a3565b866080016020810190612d4a91906132a3565b8760e0016020810190612d5d91906132a3565b888060a00190612d6d9190614cc1565b604051612d7b929190614499565b60405180910390208960c00135604051602001612da099989796959493929190614776565b604051602081830303815290604052805190602001209050919050565b600046905090565b6000604051612dd390614532565b604051809103902082600001518051906020012083602001518051906020012084604001518560600151604051602001612e11959493929190614723565b604051602081830303815290604052805190602001209050919050565b60405180610140016040528060001515815260200160007bffffffffffffffffffffffffffffffffffffffffffffffffffffffff191681526020016060815260200160608152602001612e7f612f35565b815260200160006006811115612e9157fe5b8152602001600081526020016000815260200160008152602001606081525090565b6040518060800160405280600081526020016000815260200160008152602001600073ffffffffffffffffffffffffffffffffffffffff1681525090565b6040518060e0016040528060008152602001600080191681526020016000151581526020016060815260200160608152602001606081526020016000151581525090565b60405180606001604052806000815260200160008152602001600081525090565b6040518060c00160405280600073ffffffffffffffffffffffffffffffffffffffff168152602001600073ffffffffffffffffffffffffffffffffffffffff168152602001600081526020016000815260200160008152602001606081525090565b600081359050612fc78161507e565b92915050565b600081359050612fdc81615095565b92915050565b600081519050612ff181615095565b92915050565b60008083601f84011261300957600080fd5b8235905067ffffffffffffffff81111561302257600080fd5b60208301915083602082028301111561303a57600080fd5b9250929050565b600081519050613050816150ac565b92915050565b60008083601f84011261306857600080fd5b8235905067ffffffffffffffff81111561308157600080fd5b60208301915083600182028301111561309957600080fd5b9250929050565b600082601f8301126130b157600080fd5b81516130c46130bf82614d8e565b614d61565b915080825260208301602083018583830111156130e057600080fd5b6130eb83828461502d565b50505092915050565b600081519050613103816150c3565b92915050565b60008083601f84011261311b57600080fd5b8235905067ffffffffffffffff81111561313457600080fd5b60208301915083600182028301111561314c57600080fd5b9250929050565b60006060828403121561316557600080fd5b81905092915050565b60006060828403121561318057600080fd5b61318a6060614d61565b9050600061319a8482850161328e565b60008301525060206131ae8482850161328e565b60208301525060406131c28482850161328e565b60408301525092915050565b600061010082840312156131e157600080fd5b81905092915050565b6000604082840312156131fc57600080fd5b81905092915050565b60006080828403121561321757600080fd5b6132216080614d61565b905060006132318482850161328e565b60008301525060206132458482850161328e565b60208301525060406132598482850161328e565b604083015250606061326d84828501612fe2565b60608301525092915050565b600081359050613288816150d3565b92915050565b60008151905061329d816150d3565b92915050565b6000602082840312156132b557600080fd5b60006132c384828501612fb8565b91505092915050565b600080604083850312156132df57600080fd5b60006132ed85828601612fb8565b92505060206132fe85828601612fcd565b9150509250929050565b6000806020838503121561331b57600080fd5b600083013567ffffffffffffffff81111561333557600080fd5b61334185828601612ff7565b92509250509250929050565b60006020828403121561335f57600080fd5b600061336d84828501613041565b91505092915050565b6000806040838503121561338957600080fd5b600061339785828601613041565b925050602083015167ffffffffffffffff8111156133b457600080fd5b6133c0858286016130a0565b9150509250929050565b600080604083850312156133dd57600080fd5b600083015167ffffffffffffffff8111156133f757600080fd5b613403858286016130a0565b925050602061341485828601613041565b9150509250929050565b6000806040838503121561343157600080fd5b600061343f858286016130f4565b925050602083015167ffffffffffffffff81111561345c57600080fd5b613468858286016130a0565b9150509250929050565b60006060828403121561348457600080fd5b60006134928482850161316e565b91505092915050565b600080600080600080600080610100898b0312156134b857600080fd5b600089013567ffffffffffffffff8111156134d257600080fd5b6134de8b828c016131ea565b985050602089013567ffffffffffffffff8111156134fb57600080fd5b6135078b828c01613056565b9750975050604089013567ffffffffffffffff81111561352657600080fd5b6135328b828c01613056565b955095505060606135458b828c01613153565b93505060c06135568b828c01613279565b92505060e06135678b828c01613279565b9150509295985092959890939650565b60006080828403121561358957600080fd5b600061359784828501613205565b91505092915050565b600080604083850312156135b357600080fd5b60006135c185828601613279565b92505060206135d285828601612fcd565b9150509250929050565b600080604083850312156135ef57600080fd5b60006135fd85828601613279565b925050602083013567ffffffffffffffff81111561361a57600080fd5b613626858286016131ce565b9150509250929050565b600080600080600080600060a0888a03121561364b57600080fd5b60006136598a828b01613279565b975050602088013567ffffffffffffffff81111561367657600080fd5b6136828a828b016131ea565b965050604088013567ffffffffffffffff81111561369f57600080fd5b6136ab8a828b01613056565b9550955050606088013567ffffffffffffffff8111156136ca57600080fd5b6136d68a828b01613056565b935093505060806136e98a828b01613279565b91505092959891949750929550565b6000806000806060858703121561370e57600080fd5b600061371c87828801613279565b945050602061372d87828801613279565b935050604085013567ffffffffffffffff81111561374a57600080fd5b61375687828801613109565b925092505092959194509250565b6000613770838361379a565b60208301905092915050565b61378581614fb2565b82525050565b61379481614f21565b82525050565b6137a381614f0f565b82525050565b6137b281614f0f565b82525050565b60006137c48385614de7565b93506137cf82614dba565b8060005b85811015613808576137e58284614e41565b6137ef8882613764565b97506137fa83614dda565b9250506001810190506137d3565b5085925050509392505050565b61381e81614f33565b82525050565b61382d81614f3f565b82525050565b61383c81614f49565b82525050565b600061384e8385614df8565b935061385b83858461501e565b61386483615060565b840190509392505050565b600061387b8385614e09565b935061388883858461501e565b61389183615060565b840190509392505050565b60006138a88385614e1a565b93506138b583858461501e565b82840190509392505050565b60006138cc82614dc4565b6138d68185614df8565b93506138e681856020860161502d565b6138ef81615060565b840191505092915050565b600061390582614dc4565b61390f8185614e09565b935061391f81856020860161502d565b61392881615060565b840191505092915050565b600061393e82614dc4565b6139488185614e1a565b935061395881856020860161502d565b80840191505092915050565b61396d81614fc4565b82525050565b61397c81614fe8565b82525050565b600061398e8385614e25565b935061399b83858461501e565b6139a483615060565b840190509392505050565b60006139ba82614dcf565b6139c48185614e25565b93506139d481856020860161502d565b6139dd81615060565b840191505092915050565b60006139f382614dcf565b6139fd8185614e36565b9350613a0d81856020860161502d565b80840191505092915050565b6000613a26601483614e25565b91507f496d706f737369626c6520676173206c696d69740000000000000000000000006000830152602082019050919050565b6000613a66601983614e25565b91507f7468697320776f726b6572206861732061206d616e61676572000000000000006000830152602082019050919050565b6000613aa6602783614e25565b91507f4f6e6c792052656c61794875622073686f756c642063616c6c2074686973206660008301527f756e6374696f6e000000000000000000000000000000000000000000000000006020830152604082019050919050565b6000613b0c601b83614e25565b91507f536166654d6174683a206164646974696f6e206f766572666c6f7700000000006000830152602082019050919050565b6000613b4c600183614e36565b91507f2c000000000000000000000000000000000000000000000000000000000000006000830152600182019050919050565b6000613b8c601483614e36565b91507f52656c6179446174612072656c617944617461290000000000000000000000006000830152601482019050919050565b6000613bcc601183614e25565b91507f496e76616c6964206761732070726963650000000000000000000000000000006000830152602082019050919050565b6000613c0c600183614e36565b91507f28000000000000000000000000000000000000000000000000000000000000006000830152600182019050919050565b6000613c4c602083614e25565b91507f756e6578706563746564206869676820616363657074616e63654275646765746000830152602082019050919050565b6000613c8c603283614e25565b91507f4e6f7420656e6f75676820676173206c65667420666f7220696e6e657252656c60008301527f617943616c6c20746f20636f6d706c65746500000000000000000000000000006020830152604082019050919050565b6000613cf2600f83614e25565b91507f6465706f73697420746f6f2062696700000000000000000000000000000000006000830152602082019050919050565b6000613d32601883614e25565b91507f72656c6179206d616e61676572206e6f74207374616b656400000000000000006000830152602082019050919050565b6000613d72602783614e25565b91507f72656c617920776f726b65722063616e6e6f74206265206120736d617274206360008301527f6f6e7472616374000000000000000000000000000000000000000000000000006020830152604082019050919050565b6000613dd8601083614e25565b91507f6e6f2072656c617920776f726b657273000000000000000000000000000000006000830152602082019050919050565b6000613e18600d83614e25565b91507f4e6f742070656e616c697a6572000000000000000000000000000000000000006000830152602082019050919050565b6000613e58605283614e36565b91507f454950373132446f6d61696e28737472696e67206e616d652c737472696e672060008301527f76657273696f6e2c75696e7432353620636861696e49642c616464726573732060208301527f766572696679696e67436f6e74726163742900000000000000000000000000006040830152605282019050919050565b6000613ee4602183614e25565b91507f536166654d6174683a206d756c7469706c69636174696f6e206f766572666c6f60008301527f77000000000000000000000000000000000000000000000000000000000000006020830152604082019050919050565b6000613f4a601083614e25565b91507f746f6f206d616e7920776f726b657273000000000000000000000000000000006000830152602082019050919050565b6000613f8a601283614e25565b91507f696e73756666696369656e742066756e647300000000000000000000000000006000830152602082019050919050565b6000613fca601283614e25565b91507f4e6f74206120726967687420776f726b657200000000000000000000000000006000830152602082019050919050565b600061400a601983614e25565b91507f5061796d61737465722062616c616e636520746f6f206c6f77000000000000006000830152602082019050919050565b600061404a601a83614e25565b91507f726561644279746573343a206461746120746f6f2073686f72740000000000006000830152602082019050919050565b600061408a601483614e25565b91507f556e6b6e6f776e2072656c617920776f726b65720000000000000000000000006000830152602082019050919050565b600060c083016140d06000840184614e41565b6140dd600086018261379a565b506140eb6020840184614e41565b6140f8602086018261379a565b506141066040840184614ef8565b614113604086018261447b565b506141216060840184614ef8565b61412e606086018261447b565b5061413c6080840184614ef8565b614149608086018261447b565b5061415760a0840184614e58565b85830360a087015261416a838284613842565b925050508091505092915050565b600060c083016000830151614190600086018261379a565b5060208301516141a3602086018261379a565b5060408301516141b6604086018261447b565b5060608301516141c9606086018261447b565b5060808301516141dc608086018261447b565b5060a083015184820360a08601526141f482826138c1565b9150508091505092915050565b606082016000820151614217600085018261447b565b50602082015161422a602085018261447b565b50604082015161423d604085018261447b565b50505050565b600061010083016142576000840184614ef8565b614264600086018261447b565b506142726020840184614ef8565b61427f602086018261447b565b5061428d6040840184614ef8565b61429a604086018261447b565b506142a86060840184614e41565b6142b5606086018261379a565b506142c36080840184614e41565b6142d0608086018261379a565b506142de60a0840184614e58565b85830360a08701526142f1838284613842565b9250505061430260c0840184614ef8565b61430f60c086018261447b565b5061431d60e0840184614e41565b61432a60e086018261379a565b508091505092915050565b600061010083016143496000840184614ef8565b614356600086018261447b565b506143646020840184614ef8565b614371602086018261447b565b5061437f6040840184614ef8565b61438c604086018261447b565b5061439a6060840184614e41565b6143a7606086018261379a565b506143b56080840184614e41565b6143c2608086018261379a565b506143d060a0840184614e58565b85830360a08701526143e3838284613842565b925050506143f460c0840184614ef8565b61440160c086018261447b565b5061440f60e0840184614e41565b61441c60e086018261379a565b508091505092915050565b60006040830161443a6000840184614eaf565b848203600086015261444c82826140bd565b91505061445c6020840184614ed3565b848203602086015261446e8282614243565b9150508091505092915050565b61448481614fa8565b82525050565b61449381614fa8565b82525050565b60006144a682848661389c565b91508190509392505050565b60006144be8284613933565b915081905092915050565b60006144d582866139e8565b91506144e082613bff565b91506144ec82856139e8565b91506144f782613b3f565b915061450382846139e8565b9150819050949350505050565b600061451b82613b7f565b91506145278284613933565b915081905092915050565b600061453d82613e4b565b9150819050919050565b600060208201905061455c60008301846137a9565b92915050565b600060a08201905061457760008301886137a9565b614584602083018761377c565b6145916040830186613833565b61459e606083018561448a565b81810360808301526145b081846138fa565b90509695505050505050565b60006060820190506145d160008301866137a9565b6145de602083018561378b565b6145eb604083018461448a565b949350505050565b600060a08201905061460860008301886137a9565b61461560208301876137a9565b6146226040830186613833565b61462f6060830185613973565b61463c608083018461448a565b9695505050505050565b600060808201905061465b60008301876137a9565b61466860208301866137a9565b614675604083018561448a565b614682606083018461448a565b95945050505050565b600060408201905081810360008301526146a68185876137b8565b90506146b5602083018461448a565b949350505050565b60006020820190506146d26000830184613815565b92915050565b60006040820190506146ed6000830185613815565b81810360208301526146ff81846138fa565b90509392505050565b600060208201905061471d6000830184613824565b92915050565b600060a0820190506147386000830188613824565b6147456020830187613824565b6147526040830186613824565b61475f606083018561448a565b61476c60808301846137a9565b9695505050505050565b60006101208201905061478c600083018c613824565b614799602083018b61448a565b6147a6604083018a61448a565b6147b3606083018961448a565b6147c060808301886137a9565b6147cd60a08301876137a9565b6147da60c08301866137a9565b6147e760e0830185613824565b6147f561010083018461448a565b9a9950505050505050505050565b6000608082019050818103600083015261481d81876138fa565b905061482c6020830186613815565b614839604083018561448a565b818103606083015261484b8184614335565b905095945050505050565b600060208201905061486b6000830184613964565b92915050565b60006040820190506148866000830185613973565b818103602083015261489881846138fa565b90509392505050565b600060208201905081810360008301526148bb81846139af565b905092915050565b600060208201905081810360008301526148dc81613a19565b9050919050565b600060208201905081810360008301526148fc81613a59565b9050919050565b6000602082019050818103600083015261491c81613a99565b9050919050565b6000602082019050818103600083015261493c81613aff565b9050919050565b6000602082019050818103600083015261495c81613bbf565b9050919050565b6000602082019050818103600083015261497c81613c3f565b9050919050565b6000602082019050818103600083015261499c81613c7f565b9050919050565b600060208201905081810360008301526149bc81613ce5565b9050919050565b600060208201905081810360008301526149dc81613d25565b9050919050565b600060208201905081810360008301526149fc81613d65565b9050919050565b60006020820190508181036000830152614a1c81613dcb565b9050919050565b60006020820190508181036000830152614a3c81613e0b565b9050919050565b60006020820190508181036000830152614a5c81613ed7565b9050919050565b60006020820190508181036000830152614a7c81613f3d565b9050919050565b60006020820190508181036000830152614a9c81613f7d565b9050919050565b60006020820190508181036000830152614abc81613fbd565b9050919050565b60006020820190508181036000830152614adc81613ffd565b9050919050565b60006020820190508181036000830152614afc8161403d565b9050919050565b60006020820190508181036000830152614b1c8161407d565b9050919050565b600060a0820190508181036000830152614b3d8189614178565b9050614b4c6020830188613824565b614b596040830187613824565b8181036060830152614b6b81866138fa565b90508181036080830152614b8081848661386f565b9050979650505050505050565b6000610100820190508181036000830152614ba8818b614427565b90508181036020830152614bbd81898b61386f565b90508181036040830152614bd281878961386f565b9050614be16060830186614201565b614bee60c083018561448a565b614bfb60e083018461448a565b9998505050505050505050565b60006080820190508181036000830152614c228189614427565b90508181036020830152614c3781878961386f565b90508181036040830152614c4c81858761386f565b9050614c5b606083018461448a565b979650505050505050565b6000602082019050614c7b600083018461448a565b92915050565b6000606082019050614c96600083018761448a565b614ca3602083018661448a565b8181036040830152614cb6818486613982565b905095945050505050565b60008083356001602003843603038112614cda57600080fd5b80840192508235915067ffffffffffffffff821115614cf857600080fd5b602083019250600182023603831315614d1057600080fd5b509250929050565b60008235600160c003833603038112614d3057600080fd5b80830191505092915050565b60008235600161010003833603038112614d5557600080fd5b80830191505092915050565b6000604051905081810181811067ffffffffffffffff82111715614d8457600080fd5b8060405250919050565b600067ffffffffffffffff821115614da557600080fd5b601f19601f8301169050602081019050919050565b6000819050919050565b600081519050919050565b600081519050919050565b6000602082019050919050565b600082825260208201905092915050565b600082825260208201905092915050565b600082825260208201905092915050565b600081905092915050565b600082825260208201905092915050565b600081905092915050565b6000614e506020840184612fb8565b905092915050565b60008083356001602003843603038112614e7157600080fd5b83810192508235915060208301925067ffffffffffffffff821115614e9557600080fd5b600182023603841315614ea757600080fd5b509250929050565b60008235600160c003833603038112614ec757600080fd5b82810191505092915050565b60008235600161010003833603038112614eec57600080fd5b82810191505092915050565b6000614f076020840184613279565b905092915050565b6000614f1a82614f88565b9050919050565b6000614f2c82614f88565b9050919050565b60008115159050919050565b6000819050919050565b60007fffffffff0000000000000000000000000000000000000000000000000000000082169050919050565b6000819050614f8382615071565b919050565b600073ffffffffffffffffffffffffffffffffffffffff82169050919050565b6000819050919050565b6000614fbd82614ffa565b9050919050565b6000614fcf82614fd6565b9050919050565b6000614fe182614f88565b9050919050565b6000614ff382614f75565b9050919050565b60006150058261500c565b9050919050565b600061501782614f88565b9050919050565b82818337600083830152505050565b60005b8381101561504b578082015181840152602081019050615030565b8381111561505a576000848401525b50505050565b6000601f19601f8301169050919050565b6007811061507b57fe5b50565b61508781614f0f565b811461509257600080fd5b50565b61509e81614f21565b81146150a957600080fd5b50565b6150b581614f33565b81146150c057600080fd5b50565b600781106150d057600080fd5b50565b6150dc81614fa8565b81146150e757600080fd5b5056fe52656c6179446174612875696e743235362067617350726963652c75696e743235362070637452656c61794665652c75696e74323536206261736552656c61794665652c616464726573732072656c6179576f726b65722c61646472657373207061796d61737465722c6164647265737320666f727761726465722c6279746573207061796d6173746572446174612c75696e7432353620636c69656e74496429616464726573732066726f6d2c6164647265737320746f2c75696e743235362076616c75652c75696e74323536206761732c75696e74323536206e6f6e63652c62797465732064617461a2646970667358221220b34ee8c8479040206b3fa96e382b8d7d70f21f6771b53cc1def5019e8d890a2364736f6c634300060a0033",
  "immutableReferences": {},
  "source": "/* solhint-disable avoid-low-level-calls */\n/* solhint-disable no-inline-assembly */\n/* solhint-disable not-rely-on-time */\n/* solhint-disable avoid-tx-origin */\n/* solhint-disable bracket-align */\n// SPDX-License-Identifier:MIT\npragma solidity ^0.6.9;\npragma experimental ABIEncoderV2;\n\nimport \"./utils/MinLibBytes.sol\";\nimport \"@openzeppelin/contracts/math/SafeMath.sol\";\n\nimport \"./utils/GsnUtils.sol\";\nimport \"./utils/GsnEip712Library.sol\";\nimport \"./interfaces/GsnTypes.sol\";\nimport \"./interfaces/IRelayHub.sol\";\nimport \"./interfaces/IPaymaster.sol\";\nimport \"./forwarder/IForwarder.sol\";\nimport \"./interfaces/IStakeManager.sol\";\n\ncontract RelayHub is IRelayHub {\n    using SafeMath for uint256;\n\n    string public override versionHub = \"2.0.0+opengsn.hub.irelayhub\";\n\n    uint256 public override minimumStake;\n    uint256 public override minimumUnstakeDelay;\n    uint256 public override maximumRecipientDeposit;\n    uint256 public override gasOverhead;\n    uint256 public override postOverhead;\n    uint256 public override gasReserve;\n    uint256 public override maxWorkerCount;\n    IStakeManager override public stakeManager;\n    address override public penalizer;\n\n    // maps relay worker's address to its manager's address\n    mapping(address => address) public override workerToManager;\n\n    // maps relay managers to the number of their workers\n    mapping(address => uint256) public override workerCount;\n\n    mapping(address => uint256) private balances;\n\n    constructor (\n        IStakeManager _stakeManager,\n        address _penalizer,\n        uint256 _maxWorkerCount,\n        uint256 _gasReserve,\n        uint256 _postOverhead,\n        uint256 _gasOverhead,\n        uint256 _maximumRecipientDeposit,\n        uint256 _minimumUnstakeDelay,\n        uint256 _minimumStake\n    ) public {\n        stakeManager = _stakeManager;\n        penalizer = _penalizer;\n        maxWorkerCount = _maxWorkerCount;\n        gasReserve = _gasReserve;\n        postOverhead = _postOverhead;\n        gasOverhead = _gasOverhead;\n        maximumRecipientDeposit = _maximumRecipientDeposit;\n        minimumUnstakeDelay = _minimumUnstakeDelay;\n        minimumStake =  _minimumStake;\n    }\n\n    function registerRelayServer(uint256 baseRelayFee, uint256 pctRelayFee, string calldata url) external override {\n        address relayManager = msg.sender;\n        require(\n            isRelayManagerStaked(relayManager),\n            \"relay manager not staked\"\n        );\n        require(workerCount[relayManager] > 0, \"no relay workers\");\n        emit RelayServerRegistered(relayManager, baseRelayFee, pctRelayFee, url);\n    }\n\n    function addRelayWorkers(address[] calldata newRelayWorkers) external override {\n        address relayManager = msg.sender;\n        workerCount[relayManager] = workerCount[relayManager] + newRelayWorkers.length;\n        require(workerCount[relayManager] <= maxWorkerCount, \"too many workers\");\n\n        require(\n            isRelayManagerStaked(relayManager),\n            \"relay manager not staked\"\n        );\n\n        for (uint256 i = 0; i < newRelayWorkers.length; i++) {\n            require(workerToManager[newRelayWorkers[i]] == address(0), \"this worker has a manager\");\n            workerToManager[newRelayWorkers[i]] = relayManager;\n        }\n\n        emit RelayWorkersAdded(relayManager, newRelayWorkers, workerCount[relayManager]);\n    }\n\n    function depositFor(address target) public override payable {\n        uint256 amount = msg.value;\n        require(amount <= maximumRecipientDeposit, \"deposit too big\");\n\n        balances[target] = balances[target].add(amount);\n\n        emit Deposited(target, msg.sender, amount);\n    }\n\n    function balanceOf(address target) external override view returns (uint256) {\n        return balances[target];\n    }\n\n    function withdraw(uint256 amount, address payable dest) public override {\n        address payable account = msg.sender;\n        require(balances[account] >= amount, \"insufficient funds\");\n\n        balances[account] = balances[account].sub(amount);\n        dest.transfer(amount);\n\n        emit Withdrawn(account, dest, amount);\n    }\n\n    function verifyGasLimits(\n        uint256 paymasterMaxAcceptanceBudget,\n        GsnTypes.RelayRequest calldata relayRequest,\n        uint256 initialGas\n    )\n    private\n    view\n    returns (IPaymaster.GasLimits memory gasLimits, uint256 maxPossibleGas) {\n        gasLimits =\n            IPaymaster(relayRequest.relayData.paymaster).getGasLimits{gas:50000}();\n\n        require(paymasterMaxAcceptanceBudget >= gasLimits.acceptanceBudget, \"unexpected high acceptanceBudget\");\n\n        maxPossibleGas =\n            gasOverhead.add(\n            gasLimits.preRelayedCallGasLimit).add(\n            gasLimits.postRelayedCallGasLimit).add(\n            relayRequest.request.gas);\n\n        // This transaction must have enough gas to forward the call to the recipient with the requested amount, and not\n        // run out of gas later in this function.\n        require(\n            initialGas >= maxPossibleGas,\n            \"Not enough gas left for innerRelayCall to complete\");\n\n        uint256 maxPossibleCharge = calculateCharge(\n            maxPossibleGas,\n            relayRequest.relayData\n        );\n\n        // We don't yet know how much gas will be used by the recipient, so we make sure there are enough funds to pay\n        // for the maximum possible charge.\n        require(maxPossibleCharge <= balances[relayRequest.relayData.paymaster],\n            \"Paymaster balance too low\");\n    }\n\n    struct RelayCallData {\n        bool success;\n        bytes4 functionSelector;\n        bytes recipientContext;\n        bytes relayedCallReturnValue;\n        IPaymaster.GasLimits gasLimits;\n        RelayCallStatus status;\n        uint256 innerGasUsed;\n        uint256 maxPossibleGas;\n        uint256 gasBeforeInner;\n        bytes retData;\n    }\n\n    function relayCall(\n        uint paymasterMaxAcceptanceBudget,\n        GsnTypes.RelayRequest calldata relayRequest,\n        bytes calldata signature,\n        bytes calldata approvalData,\n        uint externalGasLimit\n    )\n    external\n    override\n    returns (bool paymasterAccepted, bytes memory returnValue)\n    {\n        (signature);\n        RelayCallData memory vars;\n        vars.functionSelector = MinLibBytes.readBytes4(relayRequest.request.data, 0);\n        require(msg.sender == tx.origin, \"relay worker cannot be a smart contract\");\n        require(workerToManager[msg.sender] != address(0), \"Unknown relay worker\");\n        require(relayRequest.relayData.relayWorker == msg.sender, \"Not a right worker\");\n        require(\n            isRelayManagerStaked(workerToManager[msg.sender]),\n            \"relay manager not staked\"\n        );\n        require(relayRequest.relayData.gasPrice <= tx.gasprice, \"Invalid gas price\");\n        require(externalGasLimit <= block.gaslimit, \"Impossible gas limit\");\n\n        (vars.gasLimits, vars.maxPossibleGas) =\n             verifyGasLimits(paymasterMaxAcceptanceBudget, relayRequest, externalGasLimit);\n\n    {\n\n        //How much gas to pass down to innerRelayCall. must be lower than the default 63/64\n        // actually, min(gasleft*63/64, gasleft-GAS_RESERVE) might be enough.\n        uint256 innerGasLimit = gasleft()*63/64-gasReserve;\n        vars.gasBeforeInner = gasleft();\n\n        uint256 _tmpInitialGas = innerGasLimit + externalGasLimit + gasOverhead + postOverhead;\n        // Calls to the recipient are performed atomically inside an inner transaction which may revert in case of\n        // errors in the recipient. In either case (revert or regular execution) the return data encodes the\n        // RelayCallStatus value.\n        (bool success, bytes memory relayCallStatus) = address(this).call{gas:innerGasLimit}(\n            abi.encodeWithSelector(RelayHub.innerRelayCall.selector, relayRequest, signature, approvalData, vars.gasLimits,\n                _tmpInitialGas - gasleft(),\n                vars.maxPossibleGas\n                )\n        );\n        vars.success = success;\n        vars.innerGasUsed = vars.gasBeforeInner-gasleft();\n        (vars.status, vars.relayedCallReturnValue) = abi.decode(relayCallStatus, (RelayCallStatus, bytes));\n        if ( vars.relayedCallReturnValue.length>0 ) {\n            emit TransactionResult(vars.status, vars.relayedCallReturnValue);\n        }\n    }\n    {\n        if (!vars.success) {\n            //Failure cases where the PM doesn't pay\n            if ( (vars.innerGasUsed < vars.gasLimits.acceptanceBudget ) && (\n                    vars.status == RelayCallStatus.RejectedByPreRelayed ||\n                    vars.status == RelayCallStatus.RejectedByForwarder ||\n                    vars.status == RelayCallStatus.RejectedByRecipientRevert  //can only be thrown if rejectOnRecipientRevert==true\n            )) {\n                paymasterAccepted=false;\n\n                emit TransactionRejectedByPaymaster(\n                    workerToManager[msg.sender],\n                    relayRequest.relayData.paymaster,\n                    relayRequest.request.from,\n                    relayRequest.request.to,\n                    msg.sender,\n                    vars.functionSelector,\n                    vars.innerGasUsed,\n                    vars.relayedCallReturnValue);\n                return (false, vars.relayedCallReturnValue);\n            }\n        }\n        // We now perform the actual charge calculation, based on the measured gas used\n        uint256 gasUsed = (externalGasLimit - gasleft()) + gasOverhead;\n        uint256 charge = calculateCharge(gasUsed, relayRequest.relayData);\n\n        balances[relayRequest.relayData.paymaster] = balances[relayRequest.relayData.paymaster].sub(charge);\n        balances[workerToManager[msg.sender]] = balances[workerToManager[msg.sender]].add(charge);\n\n        emit TransactionRelayed(\n            workerToManager[msg.sender],\n            msg.sender,\n            relayRequest.request.from,\n            relayRequest.request.to,\n            relayRequest.relayData.paymaster,\n            vars.functionSelector,\n            vars.status,\n            charge);\n        return (true, \"\");\n    }\n    }\n\n    struct InnerRelayCallData {\n        uint256 balanceBefore;\n        bytes32 preReturnValue;\n        bool relayedCallSuccess;\n        bytes relayedCallReturnValue;\n        bytes recipientContext;\n        bytes data;\n        bool rejectOnRecipientRevert;\n    }\n\n    function innerRelayCall(\n        GsnTypes.RelayRequest calldata relayRequest,\n        bytes calldata signature,\n        bytes calldata approvalData,\n        IPaymaster.GasLimits calldata gasLimits,\n        uint256 totalInitialGas,\n        uint256 maxPossibleGas\n    )\n    external\n    returns (RelayCallStatus, bytes memory)\n    {\n        InnerRelayCallData memory vars;\n        // A new gas measurement is performed inside innerRelayCall, since\n        // due to EIP150 available gas amounts cannot be directly compared across external calls\n\n        // This external function can only be called by RelayHub itself, creating an internal transaction. Calls to the\n        // recipient (preRelayedCall, the relayedCall, and postRelayedCall) are called from inside this transaction.\n        require(msg.sender == address(this), \"Only RelayHub should call this function\");\n\n        // If either pre or post reverts, the whole internal transaction will be reverted, reverting all side effects on\n        // the recipient. The recipient will still be charged for the used gas by the relay.\n\n        // The recipient is no allowed to withdraw balance from RelayHub during a relayed transaction. We check pre and\n        // post state to ensure this doesn't happen.\n        vars.balanceBefore = balances[relayRequest.relayData.paymaster];\n\n        // First preRelayedCall is executed.\n        // Note: we open a new block to avoid growing the stack too much.\n        vars.data = abi.encodeWithSelector(\n            IPaymaster.preRelayedCall.selector,\n                relayRequest, signature, approvalData, maxPossibleGas\n        );\n        {\n            bool success;\n            bytes memory retData;\n            (success, retData) = relayRequest.relayData.paymaster.call{gas:gasLimits.preRelayedCallGasLimit}(vars.data);\n            if (!success) {\n                GsnEip712Library.truncateInPlace(retData);\n                revertWithStatus(RelayCallStatus.RejectedByPreRelayed, retData);\n            }\n            (vars.recipientContext, vars.rejectOnRecipientRevert) = abi.decode(retData, (bytes,bool));\n        }\n\n        // The actual relayed call is now executed. The sender's address is appended at the end of the transaction data\n\n        {\n            bool forwarderSuccess;\n            (forwarderSuccess, vars.relayedCallSuccess, vars.relayedCallReturnValue) = GsnEip712Library.execute(relayRequest, signature);\n            if ( !forwarderSuccess ) {\n                revertWithStatus(RelayCallStatus.RejectedByForwarder, vars.relayedCallReturnValue);\n            }\n\n            if (vars.rejectOnRecipientRevert && !vars.relayedCallSuccess) {\n                //we trusted the recipient, but it reverted...\n                revertWithStatus(RelayCallStatus.RejectedByRecipientRevert, vars.relayedCallReturnValue);\n            }\n        }\n        // Finally, postRelayedCall is executed, with the relayedCall execution's status and a charge estimate\n        // We now determine how much the recipient will be charged, to pass this value to postRelayedCall for accurate\n        // accounting.\n        vars.data = abi.encodeWithSelector(\n            IPaymaster.postRelayedCall.selector,\n            vars.recipientContext,\n            vars.relayedCallSuccess,\n            totalInitialGas - gasleft(), /*gasUseWithoutPost*/\n            relayRequest.relayData\n        );\n\n        {\n        (bool successPost,bytes memory ret) = relayRequest.relayData.paymaster.call{gas:gasLimits.postRelayedCallGasLimit}(vars.data);\n\n        if (!successPost) {\n            revertWithStatus(RelayCallStatus.PostRelayedFailed, ret);\n        }\n        }\n\n        if (balances[relayRequest.relayData.paymaster] < vars.balanceBefore) {\n            revertWithStatus(RelayCallStatus.PaymasterBalanceChanged, \"\");\n        }\n\n        return (vars.relayedCallSuccess ? RelayCallStatus.OK : RelayCallStatus.RelayedCallFailed, vars.relayedCallReturnValue);\n    }\n\n    /**\n     * @dev Reverts the transaction with return data set to the ABI encoding of the status argument (and revert reason data)\n     */\n    function revertWithStatus(RelayCallStatus status, bytes memory ret) private pure {\n        bytes memory data = abi.encode(status, ret);\n        GsnEip712Library.truncateInPlace(data);\n\n        assembly {\n            let dataSize := mload(data)\n            let dataPtr := add(data, 32)\n\n            revert(dataPtr, dataSize)\n        }\n    }\n\n    function calculateCharge(uint256 gasUsed, GsnTypes.RelayData calldata relayData) public override virtual view returns (uint256) {\n        //       relayData.baseRelayFee + (gasUsed * relayData.gasPrice * (100 + relayData.pctRelayFee)) / 100;\n        return relayData.baseRelayFee.add((gasUsed.mul(relayData.gasPrice).mul(relayData.pctRelayFee.add(100))).div(100));\n    }\n\n    function isRelayManagerStaked(address relayManager) public override view returns (bool) {\n        return stakeManager.isRelayManagerStaked(relayManager, address(this), minimumStake, minimumUnstakeDelay);\n    }\n\n    modifier penalizerOnly () {\n        require(msg.sender == penalizer, \"Not penalizer\");\n        _;\n    }\n\n    function penalize(address relayWorker, address payable beneficiary) external override penalizerOnly {\n        address relayManager = workerToManager[relayWorker];\n        // The worker must be controlled by a manager with a locked stake\n        require(relayManager != address(0), \"Unknown relay worker\");\n        require(\n            isRelayManagerStaked(relayManager),\n            \"relay manager not staked\"\n        );\n        IStakeManager.StakeInfo memory stakeInfo = stakeManager.getStakeInfo(relayManager);\n        stakeManager.penalizeRelayManager(relayManager, beneficiary, stakeInfo.stake);\n    }\n}\n",
  "sourcePath": "@opengsn/gsn/contracts/RelayHub.sol",
  "compiler": {
    "name": "solc",
    "version": "0.6.10+commit.00c0fcaf.Emscripten.clang"
  },
  "schemaVersion": "3.3.3",
  "updatedAt": "2020-12-24T19:55:00.022Z",
  "devdoc": {
    "methods": {}
  },
  "userdoc": {
    "methods": {}
  }
}